Archive member included to satisfy reference by file (symbol)

/opt/gcc-arm/bin/../lib/gcc/arm-none-eabi/6.3.1/../../../../arm-none-eabi/lib/thumb/v7-m/libc.a(lib_a-memcpy.o)
                              rtos/queue.o (memcpy)
/home/renzo/Projects/hardware/stm32f103c8t6//rtos/libwwg/libwwg.a(uartlib.o)
                              main.o (open_uart)
/home/renzo/Projects/hardware/stm32f103c8t6//rtos/libwwg/libwwg.a(miniprintf.o)
                              /home/renzo/Projects/hardware/stm32f103c8t6//rtos/libwwg/libwwg.a(uartlib.o) (mini_vprintf_cooked)
/home/renzo/Projects/hardware/stm32f103c8t6//rtos/libwwg/libwwg.a(getline.o)
                              /home/renzo/Projects/hardware/stm32f103c8t6//rtos/libwwg/libwwg.a(uartlib.o) (getline)
/home/renzo/Projects/hardware/stm32f103c8t6/libopencm3/lib/libopencm3_stm32f1.a(gpio.o)
                              main.o (gpio_set_mode)
/home/renzo/Projects/hardware/stm32f103c8t6/libopencm3/lib/libopencm3_stm32f1.a(gpio_common_all.o)
                              main.o (gpio_toggle)
/home/renzo/Projects/hardware/stm32f103c8t6/libopencm3/lib/libopencm3_stm32f1.a(rcc.o)
                              main.o (rcc_clock_setup_in_hse_8mhz_out_72mhz)
/home/renzo/Projects/hardware/stm32f103c8t6/libopencm3/lib/libopencm3_stm32f1.a(rcc_common_all.o)
                              main.o (rcc_periph_clock_enable)
/home/renzo/Projects/hardware/stm32f103c8t6/libopencm3/lib/libopencm3_stm32f1.a(usart_common_all.o)
                              /home/renzo/Projects/hardware/stm32f103c8t6//rtos/libwwg/libwwg.a(uartlib.o) (usart_set_baudrate)
/home/renzo/Projects/hardware/stm32f103c8t6/libopencm3/lib/libopencm3_stm32f1.a(usart_common_f124.o)
                              /home/renzo/Projects/hardware/stm32f103c8t6/libopencm3/lib/libopencm3_stm32f1.a(usart_common_all.o) (usart_send)
/home/renzo/Projects/hardware/stm32f103c8t6/libopencm3/lib/libopencm3_stm32f1.a(vector.o)
                              (reset_handler)
/home/renzo/Projects/hardware/stm32f103c8t6/libopencm3/lib/libopencm3_stm32f1.a(nvic.o)
                              /home/renzo/Projects/hardware/stm32f103c8t6//rtos/libwwg/libwwg.a(uartlib.o) (nvic_enable_irq)
/home/renzo/Projects/hardware/stm32f103c8t6/libopencm3/lib/libopencm3_stm32f1.a(assert.o)
                              /home/renzo/Projects/hardware/stm32f103c8t6/libopencm3/lib/libopencm3_stm32f1.a(rcc.o) (cm3_assert_failed)
/home/renzo/Projects/hardware/stm32f103c8t6/libopencm3/lib/libopencm3_stm32f1.a(flash_common_all.o)
                              /home/renzo/Projects/hardware/stm32f103c8t6/libopencm3/lib/libopencm3_stm32f1.a(rcc.o) (flash_set_ws)
/opt/gcc-arm/bin/../lib/gcc/arm-none-eabi/6.3.1/../../../../arm-none-eabi/lib/thumb/v7-m/libc.a(lib_a-malloc.o)
                              /home/renzo/Projects/hardware/stm32f103c8t6//rtos/libwwg/libwwg.a(uartlib.o) (malloc)
/opt/gcc-arm/bin/../lib/gcc/arm-none-eabi/6.3.1/../../../../arm-none-eabi/lib/thumb/v7-m/libc.a(lib_a-mallocr.o)
                              /opt/gcc-arm/bin/../lib/gcc/arm-none-eabi/6.3.1/../../../../arm-none-eabi/lib/thumb/v7-m/libc.a(lib_a-malloc.o) (_malloc_r)
/opt/gcc-arm/bin/../lib/gcc/arm-none-eabi/6.3.1/../../../../arm-none-eabi/lib/thumb/v7-m/libc.a(lib_a-memmove.o)
                              /home/renzo/Projects/hardware/stm32f103c8t6//rtos/libwwg/libwwg.a(getline.o) (memmove)
/opt/gcc-arm/bin/../lib/gcc/arm-none-eabi/6.3.1/../../../../arm-none-eabi/lib/thumb/v7-m/libc.a(lib_a-mlock.o)
                              /opt/gcc-arm/bin/../lib/gcc/arm-none-eabi/6.3.1/../../../../arm-none-eabi/lib/thumb/v7-m/libc.a(lib_a-mallocr.o) (__malloc_lock)
/opt/gcc-arm/bin/../lib/gcc/arm-none-eabi/6.3.1/../../../../arm-none-eabi/lib/thumb/v7-m/libc.a(lib_a-sbrkr.o)
                              /opt/gcc-arm/bin/../lib/gcc/arm-none-eabi/6.3.1/../../../../arm-none-eabi/lib/thumb/v7-m/libc.a(lib_a-mallocr.o) (_sbrk_r)
/opt/gcc-arm/bin/../lib/gcc/arm-none-eabi/6.3.1/../../../../arm-none-eabi/lib/thumb/v7-m/libc.a(lib_a-strlen-stub.o)
                              /home/renzo/Projects/hardware/stm32f103c8t6//rtos/libwwg/libwwg.a(miniprintf.o) (strlen)
/opt/gcc-arm/bin/../lib/gcc/arm-none-eabi/6.3.1/../../../../arm-none-eabi/lib/thumb/v7-m/libc.a(lib_a-freer.o)
                              /opt/gcc-arm/bin/../lib/gcc/arm-none-eabi/6.3.1/../../../../arm-none-eabi/lib/thumb/v7-m/libc.a(lib_a-malloc.o) (_free_r)
/opt/gcc-arm/bin/../lib/gcc/arm-none-eabi/6.3.1/../../../../arm-none-eabi/lib/thumb/v7-m/libc.a(lib_a-impure.o)
                              /opt/gcc-arm/bin/../lib/gcc/arm-none-eabi/6.3.1/../../../../arm-none-eabi/lib/thumb/v7-m/libc.a(lib_a-malloc.o) (_impure_ptr)
/opt/gcc-arm/bin/../lib/gcc/arm-none-eabi/6.3.1/../../../../arm-none-eabi/lib/thumb/v7-m/libc.a(lib_a-lock.o)
                              /opt/gcc-arm/bin/../lib/gcc/arm-none-eabi/6.3.1/../../../../arm-none-eabi/lib/thumb/v7-m/libc.a(lib_a-mlock.o) (__retarget_lock_acquire_recursive)
/opt/gcc-arm/bin/../lib/gcc/arm-none-eabi/6.3.1/../../../../arm-none-eabi/lib/thumb/v7-m/libc.a(lib_a-reent.o)
                              /opt/gcc-arm/bin/../lib/gcc/arm-none-eabi/6.3.1/../../../../arm-none-eabi/lib/thumb/v7-m/libc.a(lib_a-sbrkr.o) (errno)
/opt/gcc-arm/bin/../lib/gcc/arm-none-eabi/6.3.1/../../../../arm-none-eabi/lib/thumb/v7-m/libnosys.a(sbrk.o)
                              /opt/gcc-arm/bin/../lib/gcc/arm-none-eabi/6.3.1/../../../../arm-none-eabi/lib/thumb/v7-m/libc.a(lib_a-sbrkr.o) (_sbrk)

Allocating common symbols
Common symbol       size              file

__lock___atexit_recursive_mutex
                    0x1               /opt/gcc-arm/bin/../lib/gcc/arm-none-eabi/6.3.1/../../../../arm-none-eabi/lib/thumb/v7-m/libc.a(lib_a-lock.o)
__lock___arc4random_mutex
                    0x1               /opt/gcc-arm/bin/../lib/gcc/arm-none-eabi/6.3.1/../../../../arm-none-eabi/lib/thumb/v7-m/libc.a(lib_a-lock.o)
errno               0x4               /opt/gcc-arm/bin/../lib/gcc/arm-none-eabi/6.3.1/../../../../arm-none-eabi/lib/thumb/v7-m/libc.a(lib_a-reent.o)
__lock___env_recursive_mutex
                    0x1               /opt/gcc-arm/bin/../lib/gcc/arm-none-eabi/6.3.1/../../../../arm-none-eabi/lib/thumb/v7-m/libc.a(lib_a-lock.o)
__lock___sinit_recursive_mutex
                    0x1               /opt/gcc-arm/bin/../lib/gcc/arm-none-eabi/6.3.1/../../../../arm-none-eabi/lib/thumb/v7-m/libc.a(lib_a-lock.o)
__lock___malloc_recursive_mutex
                    0x1               /opt/gcc-arm/bin/../lib/gcc/arm-none-eabi/6.3.1/../../../../arm-none-eabi/lib/thumb/v7-m/libc.a(lib_a-lock.o)
__lock___at_quick_exit_mutex
                    0x1               /opt/gcc-arm/bin/../lib/gcc/arm-none-eabi/6.3.1/../../../../arm-none-eabi/lib/thumb/v7-m/libc.a(lib_a-lock.o)
__lock___dd_hash_mutex
                    0x1               /opt/gcc-arm/bin/../lib/gcc/arm-none-eabi/6.3.1/../../../../arm-none-eabi/lib/thumb/v7-m/libc.a(lib_a-lock.o)
__lock___tz_mutex   0x1               /opt/gcc-arm/bin/../lib/gcc/arm-none-eabi/6.3.1/../../../../arm-none-eabi/lib/thumb/v7-m/libc.a(lib_a-lock.o)
__lock___sfp_recursive_mutex
                    0x1               /opt/gcc-arm/bin/../lib/gcc/arm-none-eabi/6.3.1/../../../../arm-none-eabi/lib/thumb/v7-m/libc.a(lib_a-lock.o)

Discarded input sections

 .text          0x0000000000000000        0x0 main.o
 .data          0x0000000000000000        0x0 main.o
 .bss           0x0000000000000000        0x0 main.o
 .text.vApplicationStackOverflowHook
                0x0000000000000000        0x2 main.o
 .text          0x0000000000000000        0x0 rtos/heap_4.o
 .data          0x0000000000000000        0x0 rtos/heap_4.o
 .bss           0x0000000000000000        0x0 rtos/heap_4.o
 .text.xPortGetFreeHeapSize
                0x0000000000000000        0xc rtos/heap_4.o
 .text.xPortGetMinimumEverFreeHeapSize
                0x0000000000000000        0xc rtos/heap_4.o
 .text.vPortInitialiseBlocks
                0x0000000000000000        0x2 rtos/heap_4.o
 .text          0x0000000000000000        0x0 rtos/list.o
 .data          0x0000000000000000        0x0 rtos/list.o
 .bss           0x0000000000000000        0x0 rtos/list.o
 .text          0x0000000000000000        0x0 rtos/port.o
Memory Configuration

Name             Origin             Length             Attributes
rom              0x0000000008000000 0x0000000000010000 xr
ram              0x0000000020000000 0x0000000000005000 xrw
*default*        0x0000000000000000 0xffffffffffffffff

Linker script and memory map

LOAD main.o
LOAD rtos/heap_4.o
LOAD rtos/list.o
LOAD rtos/port.o
LOAD rtos/queue.o
LOAD rtos/tasks.o
LOAD rtos/opencm3.o
START GROUP
LOAD /opt/gcc-arm/bin/../lib/gcc/arm-none-eabi/6.3.1/../../../../arm-none-eabi/lib/thumb/v7-m/libc.a
LOAD /opt/gcc-arm/bin/../lib/gcc/arm-none-eabi/6.3.1/thumb/v7-m/libgcc.a
LOAD /opt/gcc-arm/bin/../lib/gcc/arm-none-eabi/6.3.1/../../../../arm-none-eabi/lib/thumb/v7-m/libnosys.a
END GROUP
LOAD /home/renzo/Projects/hardware/stm32f103c8t6//rtos/libwwg/libwwg.a
LOAD /home/renzo/Projects/hardware/stm32f103c8t6/libopencm3/lib/libopencm3_stm32f1.a
START GROUP
LOAD /opt/gcc-arm/bin/../lib/gcc/arm-none-eabi/6.3.1/thumb/v7-m/libgcc.a
LOAD /opt/gcc-arm/bin/../lib/gcc/arm-none-eabi/6.3.1/../../../../arm-none-eabi/lib/thumb/v7-m/libc.a
END GROUP
START GROUP
LOAD /opt/gcc-arm/bin/../lib/gcc/arm-none-eabi/6.3.1/thumb/v7-m/libgcc.a
LOAD /opt/gcc-arm/bin/../lib/gcc/arm-none-eabi/6.3.1/../../../../arm-none-eabi/lib/thumb/v7-m/libc.a
LOAD /opt/gcc-arm/bin/../lib/gcc/arm-none-eabi/6.3.1/../../../../arm-none-eabi/lib/thumb/v7-m/libnosys.a
END GROUP

.text           0x0000000008000000     0x2630
 *(.vectors)
 .vectors       0x0000000008000000      0x150 /home/renzo/Projects/hardware/stm32f103c8t6/libopencm3/lib/libopencm3_stm32f1.a(vector.o)
                0x0000000008000000                vector_table
 *(.text*)
 .text.uart_puts
                0x0000000008000150       0x24 main.o
 .text.demo_task
                0x0000000008000174       0x38 main.o
 .text.uart_task
                0x00000000080001ac       0xac main.o
 .text.startup.main
                0x0000000008000258       0xd0 main.o
                0x0000000008000258                main
 .text.prvInsertBlockIntoFreeList
                0x0000000008000328       0x48 rtos/heap_4.o
 .text.pvPortMalloc
                0x0000000008000370       0xf4 rtos/heap_4.o
                0x0000000008000370                pvPortMalloc
 .text.vPortFree
                0x0000000008000464       0x4c rtos/heap_4.o
                0x0000000008000464                vPortFree
 .text.vListInitialise
                0x00000000080004b0       0x16 rtos/list.o
                0x00000000080004b0                vListInitialise
 .text.vListInitialiseItem
                0x00000000080004c6        0x6 rtos/list.o
                0x00000000080004c6                vListInitialiseItem
 .text.vListInsertEnd
                0x00000000080004cc       0x18 rtos/list.o
                0x00000000080004cc                vListInsertEnd
 .text.vListInsert
                0x00000000080004e4       0x2e rtos/list.o
                0x00000000080004e4                vListInsert
 .text.uxListRemove
                0x0000000008000512       0x20 rtos/list.o
                0x0000000008000512                uxListRemove
 .text.prvTaskExitError
                0x0000000008000532       0x12 rtos/port.o
 .text.prvPortStartFirstTask
                0x0000000008000544       0x20 rtos/port.o
 .text.pxPortInitialiseStack
                0x0000000008000564       0x24 rtos/port.o
                0x0000000008000564                pxPortInitialiseStack
 *fill*         0x0000000008000588        0x8 
 .text.vPortSVCHandler
                0x0000000008000590       0x24 rtos/port.o
                0x0000000008000590                vPortSVCHandler
 .text.vPortEnterCritical
                0x00000000080005b4       0x20 rtos/port.o
                0x00000000080005b4                vPortEnterCritical
 .text.vPortExitCritical
                0x00000000080005d4       0x14 rtos/port.o
                0x00000000080005d4                vPortExitCritical
 *fill*         0x00000000080005e8        0x8 
 .text.xPortPendSVHandler
                0x00000000080005f0       0x44 rtos/port.o
                0x00000000080005f0                xPortPendSVHandler
 .text.xPortSysTickHandler
                0x0000000008000634       0x2c rtos/port.o
                0x0000000008000634                xPortSysTickHandler
 .text.vPortSetupTimerInterrupt
                0x0000000008000660       0x14 rtos/port.o
                0x0000000008000660                vPortSetupTimerInterrupt
 .text.xPortStartScheduler
                0x0000000008000674       0x30 rtos/port.o
                0x0000000008000674                xPortStartScheduler
 .text.prvCopyDataToQueue
                0x00000000080006a4       0x66 rtos/queue.o
 .text.prvCopyDataFromQueue
                0x000000000800070a       0x28 rtos/queue.o
 .text.prvUnlockQueue
                0x0000000008000732       0x70 rtos/queue.o
 *fill*         0x00000000080007a2        0x2 
 .text.xQueueGenericReset
                0x00000000080007a4       0x6c rtos/queue.o
                0x00000000080007a4                xQueueGenericReset
 .text.xQueueGenericCreate
                0x0000000008000810       0x2e rtos/queue.o
                0x0000000008000810                xQueueGenericCreate
 *fill*         0x000000000800083e        0x2 
 .text.xQueueGenericSend
                0x0000000008000840       0xf4 rtos/queue.o
                0x0000000008000840                xQueueGenericSend
 .text.xQueueGenericReceive
                0x0000000008000934      0x134 rtos/queue.o
                0x0000000008000934                xQueueGenericReceive
 .text.prvResetNextTaskUnblockTime
                0x0000000008000a68       0x24 rtos/tasks.o
 .text.prvAddCurrentTaskToDelayedList
                0x0000000008000a8c       0x8c rtos/tasks.o
 .text.xTaskCreate
                0x0000000008000b18      0x1c0 rtos/tasks.o
                0x0000000008000b18                xTaskCreate
 .text.vTaskStartScheduler
                0x0000000008000cd8       0x60 rtos/tasks.o
                0x0000000008000cd8                vTaskStartScheduler
 .text.vTaskSuspendAll
                0x0000000008000d38       0x10 rtos/tasks.o
                0x0000000008000d38                vTaskSuspendAll
 .text.xTaskIncrementTick
                0x0000000008000d48      0x10c rtos/tasks.o
                0x0000000008000d48                xTaskIncrementTick
 .text.xTaskResumeAll
                0x0000000008000e54       0xd8 rtos/tasks.o
                0x0000000008000e54                xTaskResumeAll
 .text.vTaskDelay
                0x0000000008000f2c       0x30 rtos/tasks.o
                0x0000000008000f2c                vTaskDelay
 .text.prvIdleTask
                0x0000000008000f5c       0x74 rtos/tasks.o
 .text.vTaskSwitchContext
                0x0000000008000fd0       0x60 rtos/tasks.o
                0x0000000008000fd0                vTaskSwitchContext
 .text.vTaskPlaceOnEventList
                0x0000000008001030       0x20 rtos/tasks.o
                0x0000000008001030                vTaskPlaceOnEventList
 .text.xTaskRemoveFromEventList
                0x0000000008001050       0x70 rtos/tasks.o
                0x0000000008001050                xTaskRemoveFromEventList
 .text.vTaskSetTimeOutState
                0x00000000080010c0       0x18 rtos/tasks.o
                0x00000000080010c0                vTaskSetTimeOutState
 .text.xTaskCheckForTimeOut
                0x00000000080010d8       0x4c rtos/tasks.o
                0x00000000080010d8                xTaskCheckForTimeOut
 .text.vTaskMissedYield
                0x0000000008001124        0xc rtos/tasks.o
                0x0000000008001124                vTaskMissedYield
 .text.vTaskPriorityInherit
                0x0000000008001130       0x90 rtos/tasks.o
                0x0000000008001130                vTaskPriorityInherit
 .text.xTaskPriorityDisinherit
                0x00000000080011c0       0x70 rtos/tasks.o
                0x00000000080011c0                xTaskPriorityDisinherit
 .text.pvTaskIncrementMutexHeldCount
                0x0000000008001230       0x18 rtos/tasks.o
                0x0000000008001230                pvTaskIncrementMutexHeldCount
 .text.sv_call_handler
                0x0000000008001248        0x4 rtos/opencm3.o
                0x0000000008001248                sv_call_handler
 .text.pend_sv_handler
                0x000000000800124c        0x4 rtos/opencm3.o
                0x000000000800124c                pend_sv_handler
 .text.sys_tick_handler
                0x0000000008001250        0x4 rtos/opencm3.o
                0x0000000008001250                sys_tick_handler
 .text          0x0000000008001254       0xec /opt/gcc-arm/bin/../lib/gcc/arm-none-eabi/6.3.1/../../../../arm-none-eabi/lib/thumb/v7-m/libc.a(lib_a-memcpy.o)
                0x0000000008001254                memcpy
 .text.uart_common_isr
                0x0000000008001340       0x44 /home/renzo/Projects/hardware/stm32f103c8t6//rtos/libwwg/libwwg.a(uartlib.o)
 .text.usart1_isr
                0x0000000008001384        0x6 /home/renzo/Projects/hardware/stm32f103c8t6//rtos/libwwg/libwwg.a(uartlib.o)
                0x0000000008001384                usart1_isr
 .text.usart2_isr
                0x000000000800138a        0x6 /home/renzo/Projects/hardware/stm32f103c8t6//rtos/libwwg/libwwg.a(uartlib.o)
                0x000000000800138a                usart2_isr
 .text.usart3_isr
                0x0000000008001390        0x6 /home/renzo/Projects/hardware/stm32f103c8t6//rtos/libwwg/libwwg.a(uartlib.o)
                0x0000000008001390                usart3_isr
 *fill*         0x0000000008001396        0x2 
 .text.open_uart
                0x0000000008001398      0x14c /home/renzo/Projects/hardware/stm32f103c8t6//rtos/libwwg/libwwg.a(uartlib.o)
                0x0000000008001398                open_uart
 .text.putc_uart
                0x00000000080014e4       0x34 /home/renzo/Projects/hardware/stm32f103c8t6//rtos/libwwg/libwwg.a(uartlib.o)
                0x00000000080014e4                putc_uart
 .text.uart1_putc
                0x0000000008001518       0x1c /home/renzo/Projects/hardware/stm32f103c8t6//rtos/libwwg/libwwg.a(uartlib.o)
                0x0000000008001518                uart1_putc
 .text.uart2_putc
                0x0000000008001534       0x1c /home/renzo/Projects/hardware/stm32f103c8t6//rtos/libwwg/libwwg.a(uartlib.o)
                0x0000000008001534                uart2_putc
 .text.uart3_putc
                0x0000000008001550       0x1c /home/renzo/Projects/hardware/stm32f103c8t6//rtos/libwwg/libwwg.a(uartlib.o)
                0x0000000008001550                uart3_putc
 .text.puts_uart
                0x000000000800156c       0x40 /home/renzo/Projects/hardware/stm32f103c8t6//rtos/libwwg/libwwg.a(uartlib.o)
                0x000000000800156c                puts_uart
 .text.getc_uart_nb
                0x00000000080015ac       0x34 /home/renzo/Projects/hardware/stm32f103c8t6//rtos/libwwg/libwwg.a(uartlib.o)
                0x00000000080015ac                getc_uart_nb
 .text.getc_uart
                0x00000000080015e0       0x4c /home/renzo/Projects/hardware/stm32f103c8t6//rtos/libwwg/libwwg.a(uartlib.o)
                0x00000000080015e0                getc_uart
 .text.uart1_getc
                0x000000000800162c        0xa /home/renzo/Projects/hardware/stm32f103c8t6//rtos/libwwg/libwwg.a(uartlib.o)
                0x000000000800162c                uart1_getc
 .text.uart2_getc
                0x0000000008001636        0xa /home/renzo/Projects/hardware/stm32f103c8t6//rtos/libwwg/libwwg.a(uartlib.o)
                0x0000000008001636                uart2_getc
 .text.uart3_getc
                0x0000000008001640        0xa /home/renzo/Projects/hardware/stm32f103c8t6//rtos/libwwg/libwwg.a(uartlib.o)
                0x0000000008001640                uart3_getc
 *fill*         0x000000000800164a        0x2 
 .text.getline_uart
                0x000000000800164c       0x20 /home/renzo/Projects/hardware/stm32f103c8t6//rtos/libwwg/libwwg.a(uartlib.o)
                0x000000000800164c                getline_uart
 .text.getline  0x000000000800166c      0x1a0 /home/renzo/Projects/hardware/stm32f103c8t6//rtos/libwwg/libwwg.a(getline.o)
                0x000000000800166c                getline
 .text.gpio_set_mode
                0x000000000800180c       0x62 /home/renzo/Projects/hardware/stm32f103c8t6/libopencm3/lib/libopencm3_stm32f1.a(gpio.o)
                0x000000000800180c                gpio_set_mode
 .text.gpio_toggle
                0x000000000800186e       0x12 /home/renzo/Projects/hardware/stm32f103c8t6/libopencm3/lib/libopencm3_stm32f1.a(gpio_common_all.o)
                0x000000000800186e                gpio_toggle
 .text.rcc_osc_on.part.1
                0x0000000008001880       0x10 /home/renzo/Projects/hardware/stm32f103c8t6/libopencm3/lib/libopencm3_stm32f1.a(rcc.o)
 .text.rcc_is_osc_ready
                0x0000000008001890       0x5c /home/renzo/Projects/hardware/stm32f103c8t6/libopencm3/lib/libopencm3_stm32f1.a(rcc.o)
                0x0000000008001890                rcc_is_osc_ready
 .text.rcc_wait_for_osc_ready
                0x00000000080018ec       0x10 /home/renzo/Projects/hardware/stm32f103c8t6/libopencm3/lib/libopencm3_stm32f1.a(rcc.o)
                0x00000000080018ec                rcc_wait_for_osc_ready
 .text.rcc_osc_on
                0x00000000080018fc       0x54 /home/renzo/Projects/hardware/stm32f103c8t6/libopencm3/lib/libopencm3_stm32f1.a(rcc.o)
                0x00000000080018fc                rcc_osc_on
 .text.rcc_set_sysclk_source
                0x0000000008001950       0x14 /home/renzo/Projects/hardware/stm32f103c8t6/libopencm3/lib/libopencm3_stm32f1.a(rcc.o)
                0x0000000008001950                rcc_set_sysclk_source
 .text.rcc_set_pll_multiplication_factor
                0x0000000008001964       0x14 /home/renzo/Projects/hardware/stm32f103c8t6/libopencm3/lib/libopencm3_stm32f1.a(rcc.o)
                0x0000000008001964                rcc_set_pll_multiplication_factor
 .text.rcc_set_pll_source
                0x0000000008001978       0x14 /home/renzo/Projects/hardware/stm32f103c8t6/libopencm3/lib/libopencm3_stm32f1.a(rcc.o)
                0x0000000008001978                rcc_set_pll_source
 .text.rcc_set_pllxtpre
                0x000000000800198c       0x14 /home/renzo/Projects/hardware/stm32f103c8t6/libopencm3/lib/libopencm3_stm32f1.a(rcc.o)
                0x000000000800198c                rcc_set_pllxtpre
 .text.rcc_set_adcpre
                0x00000000080019a0       0x14 /home/renzo/Projects/hardware/stm32f103c8t6/libopencm3/lib/libopencm3_stm32f1.a(rcc.o)
                0x00000000080019a0                rcc_set_adcpre
 .text.rcc_set_ppre2
                0x00000000080019b4       0x14 /home/renzo/Projects/hardware/stm32f103c8t6/libopencm3/lib/libopencm3_stm32f1.a(rcc.o)
                0x00000000080019b4                rcc_set_ppre2
 .text.rcc_set_ppre1
                0x00000000080019c8       0x14 /home/renzo/Projects/hardware/stm32f103c8t6/libopencm3/lib/libopencm3_stm32f1.a(rcc.o)
                0x00000000080019c8                rcc_set_ppre1
 .text.rcc_set_hpre
                0x00000000080019dc       0x14 /home/renzo/Projects/hardware/stm32f103c8t6/libopencm3/lib/libopencm3_stm32f1.a(rcc.o)
                0x00000000080019dc                rcc_set_hpre
 .text.rcc_clock_setup_in_hse_8mhz_out_72mhz
                0x00000000080019f0       0x8c /home/renzo/Projects/hardware/stm32f103c8t6/libopencm3/lib/libopencm3_stm32f1.a(rcc.o)
                0x00000000080019f0                rcc_clock_setup_in_hse_8mhz_out_72mhz
 .text.rcc_periph_clock_enable
                0x0000000008001a7c       0x1a /home/renzo/Projects/hardware/stm32f103c8t6/libopencm3/lib/libopencm3_stm32f1.a(rcc_common_all.o)
                0x0000000008001a7c                rcc_periph_clock_enable
 *fill*         0x0000000008001a96        0x2 
 .text.usart_set_baudrate
                0x0000000008001a98       0x28 /home/renzo/Projects/hardware/stm32f103c8t6/libopencm3/lib/libopencm3_stm32f1.a(usart_common_all.o)
                0x0000000008001a98                usart_set_baudrate
 .text.usart_set_databits
                0x0000000008001ac0       0x12 /home/renzo/Projects/hardware/stm32f103c8t6/libopencm3/lib/libopencm3_stm32f1.a(usart_common_all.o)
                0x0000000008001ac0                usart_set_databits
 .text.usart_set_stopbits
                0x0000000008001ad2        0xc /home/renzo/Projects/hardware/stm32f103c8t6/libopencm3/lib/libopencm3_stm32f1.a(usart_common_all.o)
                0x0000000008001ad2                usart_set_stopbits
 .text.usart_set_parity
                0x0000000008001ade        0xc /home/renzo/Projects/hardware/stm32f103c8t6/libopencm3/lib/libopencm3_stm32f1.a(usart_common_all.o)
                0x0000000008001ade                usart_set_parity
 .text.usart_set_mode
                0x0000000008001aea        0xc /home/renzo/Projects/hardware/stm32f103c8t6/libopencm3/lib/libopencm3_stm32f1.a(usart_common_all.o)
                0x0000000008001aea                usart_set_mode
 .text.usart_set_flow_control
                0x0000000008001af6        0xc /home/renzo/Projects/hardware/stm32f103c8t6/libopencm3/lib/libopencm3_stm32f1.a(usart_common_all.o)
                0x0000000008001af6                usart_set_flow_control
 .text.usart_enable
                0x0000000008001b02        0xa /home/renzo/Projects/hardware/stm32f103c8t6/libopencm3/lib/libopencm3_stm32f1.a(usart_common_all.o)
                0x0000000008001b02                usart_enable
 .text.usart_send_blocking
                0x0000000008001b0c       0x16 /home/renzo/Projects/hardware/stm32f103c8t6/libopencm3/lib/libopencm3_stm32f1.a(usart_common_all.o)
                0x0000000008001b0c                usart_send_blocking
 .text.usart_enable_rx_interrupt
                0x0000000008001b22        0xa /home/renzo/Projects/hardware/stm32f103c8t6/libopencm3/lib/libopencm3_stm32f1.a(usart_common_all.o)
                0x0000000008001b22                usart_enable_rx_interrupt
 .text.usart_disable_rx_interrupt
                0x0000000008001b2c        0xa /home/renzo/Projects/hardware/stm32f103c8t6/libopencm3/lib/libopencm3_stm32f1.a(usart_common_all.o)
                0x0000000008001b2c                usart_disable_rx_interrupt
 .text.usart_send
                0x0000000008001b36        0x8 /home/renzo/Projects/hardware/stm32f103c8t6/libopencm3/lib/libopencm3_stm32f1.a(usart_common_f124.o)
                0x0000000008001b36                usart_send
 .text.usart_wait_send_ready
                0x0000000008001b3e        0x8 /home/renzo/Projects/hardware/stm32f103c8t6/libopencm3/lib/libopencm3_stm32f1.a(usart_common_f124.o)
                0x0000000008001b3e                usart_wait_send_ready
 .text.blocking_handler
                0x0000000008001b46        0x2 /home/renzo/Projects/hardware/stm32f103c8t6/libopencm3/lib/libopencm3_stm32f1.a(vector.o)
                0x0000000008001b46                rtc_isr
                0x0000000008001b46                tim7_isr
                0x0000000008001b46                adc1_2_isr
                0x0000000008001b46                tim1_trg_com_isr
                0x0000000008001b46                usb_hp_can_tx_isr
                0x0000000008001b46                tim6_isr
                0x0000000008001b46                usb_wakeup_isr
                0x0000000008001b46                blocking_handler
                0x0000000008001b46                tim5_isr
                0x0000000008001b46                otg_fs_isr
                0x0000000008001b46                spi1_isr
                0x0000000008001b46                exti2_isr
                0x0000000008001b46                dma1_channel6_isr
                0x0000000008001b46                can_rx1_isr
                0x0000000008001b46                dma1_channel5_isr
                0x0000000008001b46                dma2_channel5_isr
                0x0000000008001b46                usage_fault_handler
                0x0000000008001b46                tim8_trg_com_isr
                0x0000000008001b46                can2_rx0_isr
                0x0000000008001b46                tim1_brk_isr
                0x0000000008001b46                can2_rx1_isr
                0x0000000008001b46                tim1_cc_isr
                0x0000000008001b46                sdio_isr
                0x0000000008001b46                eth_isr
                0x0000000008001b46                dma1_channel4_isr
                0x0000000008001b46                tim8_brk_isr
                0x0000000008001b46                dma2_channel4_5_isr
                0x0000000008001b46                pvd_isr
                0x0000000008001b46                rcc_isr
                0x0000000008001b46                flash_isr
                0x0000000008001b46                uart4_isr
                0x0000000008001b46                rtc_alarm_isr
                0x0000000008001b46                exti15_10_isr
                0x0000000008001b46                hard_fault_handler
                0x0000000008001b46                exti1_isr
                0x0000000008001b46                i2c1_ev_isr
                0x0000000008001b46                dma2_channel1_isr
                0x0000000008001b46                spi2_isr
                0x0000000008001b46                tim8_up_isr
                0x0000000008001b46                dma2_channel2_isr
                0x0000000008001b46                exti3_isr
                0x0000000008001b46                adc3_isr
                0x0000000008001b46                tim3_isr
                0x0000000008001b46                usb_lp_can_rx0_isr
                0x0000000008001b46                i2c2_er_isr
                0x0000000008001b46                i2c2_ev_isr
                0x0000000008001b46                uart5_isr
                0x0000000008001b46                fsmc_isr
                0x0000000008001b46                dma1_channel1_isr
                0x0000000008001b46                exti4_isr
                0x0000000008001b46                mem_manage_handler
                0x0000000008001b46                can2_tx_isr
                0x0000000008001b46                exti9_5_isr
                0x0000000008001b46                dma2_channel3_isr
                0x0000000008001b46                dma1_channel7_isr
                0x0000000008001b46                tim1_up_isr
                0x0000000008001b46                can2_sce_isr
                0x0000000008001b46                tim4_isr
                0x0000000008001b46                dma1_channel2_isr
                0x0000000008001b46                i2c1_er_isr
                0x0000000008001b46                can_sce_isr
                0x0000000008001b46                tim8_cc_isr
                0x0000000008001b46                tamper_isr
                0x0000000008001b46                eth_wkup_isr
                0x0000000008001b46                bus_fault_handler
                0x0000000008001b46                wwdg_isr
                0x0000000008001b46                dma1_channel3_isr
                0x0000000008001b46                spi3_isr
                0x0000000008001b46                tim2_isr
                0x0000000008001b46                exti0_isr
 .text.null_handler
                0x0000000008001b48        0x2 /home/renzo/Projects/hardware/stm32f103c8t6/libopencm3/lib/libopencm3_stm32f1.a(vector.o)
                0x0000000008001b48                null_handler
                0x0000000008001b48                debug_monitor_handler
                0x0000000008001b48                nmi_handler
 *fill*         0x0000000008001b4a        0x2 
 .text.reset_handler
                0x0000000008001b4c       0x94 /home/renzo/Projects/hardware/stm32f103c8t6/libopencm3/lib/libopencm3_stm32f1.a(vector.o)
                0x0000000008001b4c                reset_handler
 .text.nvic_enable_irq
                0x0000000008001be0       0x1a /home/renzo/Projects/hardware/stm32f103c8t6/libopencm3/lib/libopencm3_stm32f1.a(nvic.o)
                0x0000000008001be0                nvic_enable_irq
 *fill*         0x0000000008001bfa        0x2 
 .text.flash_set_ws
                0x0000000008001bfc       0x14 /home/renzo/Projects/hardware/stm32f103c8t6/libopencm3/lib/libopencm3_stm32f1.a(flash_common_all.o)
                0x0000000008001bfc                flash_set_ws
 .text.malloc   0x0000000008001c10       0x10 /opt/gcc-arm/bin/../lib/gcc/arm-none-eabi/6.3.1/../../../../arm-none-eabi/lib/thumb/v7-m/libc.a(lib_a-malloc.o)
                0x0000000008001c10                malloc
 .text._malloc_r
                0x0000000008001c20      0x544 /opt/gcc-arm/bin/../lib/gcc/arm-none-eabi/6.3.1/../../../../arm-none-eabi/lib/thumb/v7-m/libc.a(lib_a-mallocr.o)
                0x0000000008001c20                _malloc_r
 .text.memmove  0x0000000008002164       0xc8 /opt/gcc-arm/bin/../lib/gcc/arm-none-eabi/6.3.1/../../../../arm-none-eabi/lib/thumb/v7-m/libc.a(lib_a-memmove.o)
                0x0000000008002164                memmove
 .text.__malloc_lock
                0x000000000800222c        0xc /opt/gcc-arm/bin/../lib/gcc/arm-none-eabi/6.3.1/../../../../arm-none-eabi/lib/thumb/v7-m/libc.a(lib_a-mlock.o)
                0x000000000800222c                __malloc_lock
 .text.__malloc_unlock
                0x0000000008002238        0xc /opt/gcc-arm/bin/../lib/gcc/arm-none-eabi/6.3.1/../../../../arm-none-eabi/lib/thumb/v7-m/libc.a(lib_a-mlock.o)
                0x0000000008002238                __malloc_unlock
 .text._sbrk_r  0x0000000008002244       0x24 /opt/gcc-arm/bin/../lib/gcc/arm-none-eabi/6.3.1/../../../../arm-none-eabi/lib/thumb/v7-m/libc.a(lib_a-sbrkr.o)
                0x0000000008002244                _sbrk_r
 .text._malloc_trim_r
                0x0000000008002268       0xa0 /opt/gcc-arm/bin/../lib/gcc/arm-none-eabi/6.3.1/../../../../arm-none-eabi/lib/thumb/v7-m/libc.a(lib_a-freer.o)
                0x0000000008002268                _malloc_trim_r
 .text._free_r  0x0000000008002308      0x1cc /opt/gcc-arm/bin/../lib/gcc/arm-none-eabi/6.3.1/../../../../arm-none-eabi/lib/thumb/v7-m/libc.a(lib_a-freer.o)
                0x0000000008002308                _free_r
 .text.__retarget_lock_acquire_recursive
                0x00000000080024d4        0x4 /opt/gcc-arm/bin/../lib/gcc/arm-none-eabi/6.3.1/../../../../arm-none-eabi/lib/thumb/v7-m/libc.a(lib_a-lock.o)
                0x00000000080024d4                __retarget_lock_acquire_recursive
 .text.__retarget_lock_release_recursive
                0x00000000080024d8        0x4 /opt/gcc-arm/bin/../lib/gcc/arm-none-eabi/6.3.1/../../../../arm-none-eabi/lib/thumb/v7-m/libc.a(lib_a-lock.o)
                0x00000000080024d8                __retarget_lock_release_recursive
 .text._sbrk    0x00000000080024dc       0x1c /opt/gcc-arm/bin/../lib/gcc/arm-none-eabi/6.3.1/../../../../arm-none-eabi/lib/thumb/v7-m/libnosys.a(sbrk.o)
                0x00000000080024dc                _sbrk
                0x00000000080024f8                . = ALIGN (0x4)
 *(.rodata*)
 .rodata.demo_task.str1.1
                0x00000000080024f8       0x8d main.o
 .rodata.main.str1.1
                0x0000000008002585       0x11 main.o
 .rodata.uart_task.str1.1
                0x0000000008002596       0x58 main.o
 .rodata.vTaskStartScheduler.str1.1
                0x00000000080025ee        0x5 rtos/tasks.o
 *fill*         0x00000000080025f3        0x1 
 .rodata.uarts  0x00000000080025f4       0x3c /home/renzo/Projects/hardware/stm32f103c8t6//rtos/libwwg/libwwg.a(uartlib.o)
                0x0000000008002630                . = ALIGN (0x4)

.glue_7         0x0000000008002630        0x0
 .glue_7        0x0000000008002630        0x0 linker stubs

.glue_7t        0x0000000008002630        0x0
 .glue_7t       0x0000000008002630        0x0 linker stubs

.vfp11_veneer   0x0000000008002630        0x0
 .vfp11_veneer  0x0000000008002630        0x0 linker stubs

.v4_bx          0x0000000008002630        0x0
 .v4_bx         0x0000000008002630        0x0 linker stubs

.iplt           0x0000000008002630        0x0
 .iplt          0x0000000008002630        0x0 main.o

.rel.dyn        0x0000000008002630        0x0
 .rel.iplt      0x0000000008002630        0x0 main.o

.preinit_array  0x0000000008002630        0x0
                0x0000000008002630                . = ALIGN (0x4)
                0x0000000008002630                __preinit_array_start = .
 *(.preinit_array)
                0x0000000008002630                __preinit_array_end = .

.init_array     0x0000000008002630        0x0
                0x0000000008002630                . = ALIGN (0x4)
                0x0000000008002630                __init_array_start = .
 *(SORT(.init_array.*))
 *(.init_array)
                0x0000000008002630                __init_array_end = .

.fini_array     0x0000000008002630        0x0
                0x0000000008002630                . = ALIGN (0x4)
                0x0000000008002630                __fini_array_start = .
 *(.fini_array)
 *(SORT(.fini_array.*))
                0x0000000008002630                __fini_array_end = .

.ARM.extab
 *(.ARM.extab*)

.ARM.exidx      0x0000000008002630        0x0
                0x0000000008002630                __exidx_start = .
 *(.ARM.exidx*)
                0x0000000008002630                __exidx_end = .
                0x0000000008002630                . = ALIGN (0x4)
                0x0000000008002630                _etext = .

.data           0x0000000020000000      0x850 load address 0x0000000008002630
                0x0000000020000000                _data = .
 *(.data*)
 .data.uxCriticalNesting
                0x0000000020000000        0x4 rtos/port.o
 .data.rcc_ahb_frequency
                0x0000000020000004        0x4 /home/renzo/Projects/hardware/stm32f103c8t6/libopencm3/lib/libopencm3_stm32f1.a(rcc.o)
                0x0000000020000004                rcc_ahb_frequency
 .data.rcc_apb1_frequency
                0x0000000020000008        0x4 /home/renzo/Projects/hardware/stm32f103c8t6/libopencm3/lib/libopencm3_stm32f1.a(rcc.o)
                0x0000000020000008                rcc_apb1_frequency
 .data.rcc_apb2_frequency
                0x000000002000000c        0x4 /home/renzo/Projects/hardware/stm32f103c8t6/libopencm3/lib/libopencm3_stm32f1.a(rcc.o)
                0x000000002000000c                rcc_apb2_frequency
 .data.__malloc_av_
                0x0000000020000010      0x408 /opt/gcc-arm/bin/../lib/gcc/arm-none-eabi/6.3.1/../../../../arm-none-eabi/lib/thumb/v7-m/libc.a(lib_a-mallocr.o)
                0x0000000020000010                __malloc_av_
 .data.__malloc_sbrk_base
                0x0000000020000418        0x4 /opt/gcc-arm/bin/../lib/gcc/arm-none-eabi/6.3.1/../../../../arm-none-eabi/lib/thumb/v7-m/libc.a(lib_a-mallocr.o)
                0x0000000020000418                __malloc_sbrk_base
 .data.__malloc_trim_threshold
                0x000000002000041c        0x4 /opt/gcc-arm/bin/../lib/gcc/arm-none-eabi/6.3.1/../../../../arm-none-eabi/lib/thumb/v7-m/libc.a(lib_a-mallocr.o)
                0x000000002000041c                __malloc_trim_threshold
 .data._impure_ptr
                0x0000000020000420        0x4 /opt/gcc-arm/bin/../lib/gcc/arm-none-eabi/6.3.1/../../../../arm-none-eabi/lib/thumb/v7-m/libc.a(lib_a-impure.o)
                0x0000000020000420                _impure_ptr
 *fill*         0x0000000020000424        0x4 
 .data.impure_data
                0x0000000020000428      0x428 /opt/gcc-arm/bin/../lib/gcc/arm-none-eabi/6.3.1/../../../../arm-none-eabi/lib/thumb/v7-m/libc.a(lib_a-impure.o)
                0x0000000020000850                . = ALIGN (0x4)
                0x0000000020000850                _edata = .
                0x0000000008002630                _data_loadaddr = LOADADDR (.data)

.igot.plt       0x0000000020000850        0x0 load address 0x0000000008002e80
 .igot.plt      0x0000000020000850        0x0 main.o

.bss            0x0000000020000850     0x458c load address 0x0000000008002e80
 *(.bss*)
 .bss.uart_txq  0x0000000020000850        0x4 main.o
 .bss.pxEnd     0x0000000020000854        0x4 rtos/heap_4.o
 .bss.ucHeap    0x0000000020000858     0x4400 rtos/heap_4.o
 .bss.xBlockAllocatedBit
                0x0000000020004c58        0x4 rtos/heap_4.o
 .bss.xFreeBytesRemaining
                0x0000000020004c5c        0x4 rtos/heap_4.o
 .bss.xMinimumEverFreeBytesRemaining
                0x0000000020004c60        0x4 rtos/heap_4.o
 .bss.xStart    0x0000000020004c64        0x8 rtos/heap_4.o
 .bss.pxCurrentTCB
                0x0000000020004c6c        0x4 rtos/tasks.o
                0x0000000020004c6c                pxCurrentTCB
 .bss.pxDelayedTaskList
                0x0000000020004c70        0x4 rtos/tasks.o
 .bss.pxOverflowDelayedTaskList
                0x0000000020004c74        0x4 rtos/tasks.o
 .bss.pxReadyTasksLists
                0x0000000020004c78       0x64 rtos/tasks.o
 .bss.uxCurrentNumberOfTasks
                0x0000000020004cdc        0x4 rtos/tasks.o
 .bss.uxDeletedTasksWaitingCleanUp
                0x0000000020004ce0        0x4 rtos/tasks.o
 .bss.uxPendedTicks
                0x0000000020004ce4        0x4 rtos/tasks.o
 .bss.uxSchedulerSuspended
                0x0000000020004ce8        0x4 rtos/tasks.o
 .bss.uxTaskNumber
                0x0000000020004cec        0x4 rtos/tasks.o
 .bss.uxTopReadyPriority
                0x0000000020004cf0        0x4 rtos/tasks.o
 .bss.xDelayedTaskList1
                0x0000000020004cf4       0x14 rtos/tasks.o
 .bss.xDelayedTaskList2
                0x0000000020004d08       0x14 rtos/tasks.o
 .bss.xIdleTaskHandle
                0x0000000020004d1c        0x4 rtos/tasks.o
 .bss.xNextTaskUnblockTime
                0x0000000020004d20        0x4 rtos/tasks.o
 .bss.xNumOfOverflows
                0x0000000020004d24        0x4 rtos/tasks.o
 .bss.xPendingReadyList
                0x0000000020004d28       0x14 rtos/tasks.o
 .bss.xSchedulerRunning
                0x0000000020004d3c        0x4 rtos/tasks.o
 .bss.xSuspendedTaskList
                0x0000000020004d40       0x14 rtos/tasks.o
 .bss.xTasksWaitingTermination
                0x0000000020004d54       0x14 rtos/tasks.o
 .bss.xTickCount
                0x0000000020004d68        0x4 rtos/tasks.o
 .bss.xYieldPending
                0x0000000020004d6c        0x4 rtos/tasks.o
 .bss.uart_data
                0x0000000020004d70        0xc /home/renzo/Projects/hardware/stm32f103c8t6//rtos/libwwg/libwwg.a(uartlib.o)
 .bss.__malloc_current_mallinfo
                0x0000000020004d7c       0x28 /opt/gcc-arm/bin/../lib/gcc/arm-none-eabi/6.3.1/../../../../arm-none-eabi/lib/thumb/v7-m/libc.a(lib_a-mallocr.o)
                0x0000000020004d7c                __malloc_current_mallinfo
 .bss.__malloc_max_sbrked_mem
                0x0000000020004da4        0x4 /opt/gcc-arm/bin/../lib/gcc/arm-none-eabi/6.3.1/../../../../arm-none-eabi/lib/thumb/v7-m/libc.a(lib_a-mallocr.o)
                0x0000000020004da4                __malloc_max_sbrked_mem
 .bss.__malloc_max_total_mem
                0x0000000020004da8        0x4 /opt/gcc-arm/bin/../lib/gcc/arm-none-eabi/6.3.1/../../../../arm-none-eabi/lib/thumb/v7-m/libc.a(lib_a-mallocr.o)
                0x0000000020004da8                __malloc_max_total_mem
 .bss.__malloc_top_pad
                0x0000000020004dac        0x4 /opt/gcc-arm/bin/../lib/gcc/arm-none-eabi/6.3.1/../../../../arm-none-eabi/lib/thumb/v7-m/libc.a(lib_a-mallocr.o)
                0x0000000020004dac                __malloc_top_pad
 .bss.heap_end.4116
                0x0000000020004db0        0x4 /opt/gcc-arm/bin/../lib/gcc/arm-none-eabi/6.3.1/../../../../arm-none-eabi/lib/thumb/v7-m/libnosys.a(sbrk.o)
 *(COMMON)
 COMMON         0x0000000020004db4       0x21 /opt/gcc-arm/bin/../lib/gcc/arm-none-eabi/6.3.1/../../../../arm-none-eabi/lib/thumb/v7-m/libc.a(lib_a-lock.o)
                0x0000000020004db4                __lock___atexit_recursive_mutex
                0x0000000020004db8                __lock___arc4random_mutex
                0x0000000020004dbc                __lock___env_recursive_mutex
                0x0000000020004dc0                __lock___sinit_recursive_mutex
                0x0000000020004dc4                __lock___malloc_recursive_mutex
                0x0000000020004dc8                __lock___at_quick_exit_mutex
                0x0000000020004dcc                __lock___dd_hash_mutex
                0x0000000020004dd0                __lock___tz_mutex
                0x0000000020004dd4                __lock___sfp_recursive_mutex
 *fill*         0x0000000020004dd5        0x3 
 COMMON         0x0000000020004dd8        0x4 /opt/gcc-arm/bin/../lib/gcc/arm-none-eabi/6.3.1/../../../../arm-none-eabi/lib/thumb/v7-m/libc.a(lib_a-reent.o)
                0x0000000020004dd8                errno
                0x0000000020004ddc                . = ALIGN (0x4)
                0x0000000020004ddc                _ebss = .

/DISCARD/
 *(.eh_frame)
                0x0000000020004ddc                . = ALIGN (0x4)
                0x0000000020004ddc                end = .
                0x0000000020005000                PROVIDE (_stack, (ORIGIN (ram) + LENGTH (ram)))
OUTPUT(main.elf elf32-littlearm)

.debug_info     0x0000000000000000     0xb737
 .debug_info    0x0000000000000000      0xff2 main.o
 .debug_info    0x0000000000000ff2      0xbdb rtos/heap_4.o
 .debug_info    0x0000000000001bcd      0xab3 rtos/list.o
 .debug_info    0x0000000000002680      0x302 rtos/port.o
 .debug_info    0x0000000000002982     0x1a57 rtos/queue.o
 .debug_info    0x00000000000043d9     0x263c rtos/tasks.o
 .debug_info    0x0000000000006a15      0x132 rtos/opencm3.o
 .debug_info    0x0000000000006b47     0x19fc /home/renzo/Projects/hardware/stm32f103c8t6//rtos/libwwg/libwwg.a(uartlib.o)
 .debug_info    0x0000000000008543      0xaa5 /home/renzo/Projects/hardware/stm32f103c8t6//rtos/libwwg/libwwg.a(getline.o)
 .debug_info    0x0000000000008fe8      0x1dd /home/renzo/Projects/hardware/stm32f103c8t6/libopencm3/lib/libopencm3_stm32f1.a(gpio.o)
 .debug_info    0x00000000000091c5      0x22c /home/renzo/Projects/hardware/stm32f103c8t6/libopencm3/lib/libopencm3_stm32f1.a(gpio_common_all.o)
 .debug_info    0x00000000000093f1     0x114b /home/renzo/Projects/hardware/stm32f103c8t6/libopencm3/lib/libopencm3_stm32f1.a(rcc.o)
 .debug_info    0x000000000000a53c      0x5f2 /home/renzo/Projects/hardware/stm32f103c8t6/libopencm3/lib/libopencm3_stm32f1.a(rcc_common_all.o)
 .debug_info    0x000000000000ab2e      0x4c0 /home/renzo/Projects/hardware/stm32f103c8t6/libopencm3/lib/libopencm3_stm32f1.a(usart_common_all.o)
 .debug_info    0x000000000000afee      0x19a /home/renzo/Projects/hardware/stm32f103c8t6/libopencm3/lib/libopencm3_stm32f1.a(usart_common_f124.o)
 .debug_info    0x000000000000b188      0x2af /home/renzo/Projects/hardware/stm32f103c8t6/libopencm3/lib/libopencm3_stm32f1.a(vector.o)
 .debug_info    0x000000000000b437      0x214 /home/renzo/Projects/hardware/stm32f103c8t6/libopencm3/lib/libopencm3_stm32f1.a(nvic.o)
 .debug_info    0x000000000000b64b       0xec /home/renzo/Projects/hardware/stm32f103c8t6/libopencm3/lib/libopencm3_stm32f1.a(flash_common_all.o)

.debug_abbrev   0x0000000000000000     0x2169
 .debug_abbrev  0x0000000000000000      0x2c2 main.o
 .debug_abbrev  0x00000000000002c2      0x303 rtos/heap_4.o
 .debug_abbrev  0x00000000000005c5      0x208 rtos/list.o
 .debug_abbrev  0x00000000000007cd      0x1d4 rtos/port.o
 .debug_abbrev  0x00000000000009a1      0x369 rtos/queue.o
 .debug_abbrev  0x0000000000000d0a      0x469 rtos/tasks.o
 .debug_abbrev  0x0000000000001173       0x81 rtos/opencm3.o
 .debug_abbrev  0x00000000000011f4      0x3c5 /home/renzo/Projects/hardware/stm32f103c8t6//rtos/libwwg/libwwg.a(uartlib.o)
 .debug_abbrev  0x00000000000015b9      0x232 /home/renzo/Projects/hardware/stm32f103c8t6//rtos/libwwg/libwwg.a(getline.o)
 .debug_abbrev  0x00000000000017eb       0xb7 /home/renzo/Projects/hardware/stm32f103c8t6/libopencm3/lib/libopencm3_stm32f1.a(gpio.o)
 .debug_abbrev  0x00000000000018a2       0xf4 /home/renzo/Projects/hardware/stm32f103c8t6/libopencm3/lib/libopencm3_stm32f1.a(gpio_common_all.o)
 .debug_abbrev  0x0000000000001996      0x27f /home/renzo/Projects/hardware/stm32f103c8t6/libopencm3/lib/libopencm3_stm32f1.a(rcc.o)
 .debug_abbrev  0x0000000000001c15      0x137 /home/renzo/Projects/hardware/stm32f103c8t6/libopencm3/lib/libopencm3_stm32f1.a(rcc_common_all.o)
 .debug_abbrev  0x0000000000001d4c      0x10f /home/renzo/Projects/hardware/stm32f103c8t6/libopencm3/lib/libopencm3_stm32f1.a(usart_common_all.o)
 .debug_abbrev  0x0000000000001e5b       0xb7 /home/renzo/Projects/hardware/stm32f103c8t6/libopencm3/lib/libopencm3_stm32f1.a(usart_common_f124.o)
 .debug_abbrev  0x0000000000001f12      0x127 /home/renzo/Projects/hardware/stm32f103c8t6/libopencm3/lib/libopencm3_stm32f1.a(vector.o)
 .debug_abbrev  0x0000000000002039       0xa6 /home/renzo/Projects/hardware/stm32f103c8t6/libopencm3/lib/libopencm3_stm32f1.a(nvic.o)
 .debug_abbrev  0x00000000000020df       0x8a /home/renzo/Projects/hardware/stm32f103c8t6/libopencm3/lib/libopencm3_stm32f1.a(flash_common_all.o)

.debug_loc      0x0000000000000000     0x404d
 .debug_loc     0x0000000000000000       0xa1 main.o
 .debug_loc     0x00000000000000a1      0x34c rtos/heap_4.o
 .debug_loc     0x00000000000003ed       0x94 rtos/list.o
 .debug_loc     0x0000000000000481       0xa8 rtos/port.o
 .debug_loc     0x0000000000000529      0xce7 rtos/queue.o
 .debug_loc     0x0000000000001210     0x1415 rtos/tasks.o
 .debug_loc     0x0000000000002625      0xb27 /home/renzo/Projects/hardware/stm32f103c8t6//rtos/libwwg/libwwg.a(uartlib.o)
 .debug_loc     0x000000000000314c      0x2f1 /home/renzo/Projects/hardware/stm32f103c8t6//rtos/libwwg/libwwg.a(getline.o)
 .debug_loc     0x000000000000343d      0x172 /home/renzo/Projects/hardware/stm32f103c8t6/libopencm3/lib/libopencm3_stm32f1.a(gpio.o)
 .debug_loc     0x00000000000035af       0x97 /home/renzo/Projects/hardware/stm32f103c8t6/libopencm3/lib/libopencm3_stm32f1.a(gpio_common_all.o)
 .debug_loc     0x0000000000003646      0x480 /home/renzo/Projects/hardware/stm32f103c8t6/libopencm3/lib/libopencm3_stm32f1.a(rcc.o)
 .debug_loc     0x0000000000003ac6      0x108 /home/renzo/Projects/hardware/stm32f103c8t6/libopencm3/lib/libopencm3_stm32f1.a(rcc_common_all.o)
 .debug_loc     0x0000000000003bce      0x1ca /home/renzo/Projects/hardware/stm32f103c8t6/libopencm3/lib/libopencm3_stm32f1.a(usart_common_all.o)
 .debug_loc     0x0000000000003d98       0x63 /home/renzo/Projects/hardware/stm32f103c8t6/libopencm3/lib/libopencm3_stm32f1.a(usart_common_f124.o)
 .debug_loc     0x0000000000003dfb       0xea /home/renzo/Projects/hardware/stm32f103c8t6/libopencm3/lib/libopencm3_stm32f1.a(vector.o)
 .debug_loc     0x0000000000003ee5      0x129 /home/renzo/Projects/hardware/stm32f103c8t6/libopencm3/lib/libopencm3_stm32f1.a(nvic.o)
 .debug_loc     0x000000000000400e       0x3f /home/renzo/Projects/hardware/stm32f103c8t6/libopencm3/lib/libopencm3_stm32f1.a(flash_common_all.o)

.debug_aranges  0x0000000000000000      0x8d8
 .debug_aranges
                0x0000000000000000       0x40 main.o
 .debug_aranges
                0x0000000000000040       0x48 rtos/heap_4.o
 .debug_aranges
                0x0000000000000088       0x40 rtos/list.o
 .debug_aranges
                0x00000000000000c8       0x70 rtos/port.o
 .debug_aranges
                0x0000000000000138       0xa8 rtos/queue.o
 .debug_aranges
                0x00000000000001e0      0x160 rtos/tasks.o
 .debug_aranges
                0x0000000000000340       0x30 rtos/opencm3.o
 .debug_aranges
                0x0000000000000370      0x140 /home/renzo/Projects/hardware/stm32f103c8t6//rtos/libwwg/libwwg.a(uartlib.o)
 .debug_aranges
                0x00000000000004b0       0x20 /home/renzo/Projects/hardware/stm32f103c8t6//rtos/libwwg/libwwg.a(getline.o)
 .debug_aranges
                0x00000000000004d0       0x38 /home/renzo/Projects/hardware/stm32f103c8t6/libopencm3/lib/libopencm3_stm32f1.a(gpio.o)
 .debug_aranges
                0x0000000000000508       0x50 /home/renzo/Projects/hardware/stm32f103c8t6/libopencm3/lib/libopencm3_stm32f1.a(gpio_common_all.o)
 .debug_aranges
                0x0000000000000558      0x158 /home/renzo/Projects/hardware/stm32f103c8t6/libopencm3/lib/libopencm3_stm32f1.a(rcc.o)
 .debug_aranges
                0x00000000000006b0       0x68 /home/renzo/Projects/hardware/stm32f103c8t6/libopencm3/lib/libopencm3_stm32f1.a(rcc_common_all.o)
 .debug_aranges
                0x0000000000000718       0xb8 /home/renzo/Projects/hardware/stm32f103c8t6/libopencm3/lib/libopencm3_stm32f1.a(usart_common_all.o)
 .debug_aranges
                0x00000000000007d0       0x40 /home/renzo/Projects/hardware/stm32f103c8t6/libopencm3/lib/libopencm3_stm32f1.a(usart_common_f124.o)
 .debug_aranges
                0x0000000000000810       0x30 /home/renzo/Projects/hardware/stm32f103c8t6/libopencm3/lib/libopencm3_stm32f1.a(vector.o)
 .debug_aranges
                0x0000000000000840       0x60 /home/renzo/Projects/hardware/stm32f103c8t6/libopencm3/lib/libopencm3_stm32f1.a(nvic.o)
 .debug_aranges
                0x00000000000008a0       0x38 /home/renzo/Projects/hardware/stm32f103c8t6/libopencm3/lib/libopencm3_stm32f1.a(flash_common_all.o)

.debug_ranges   0x0000000000000000      0xab8
 .debug_ranges  0x0000000000000000       0x50 main.o
 .debug_ranges  0x0000000000000050       0x38 rtos/heap_4.o
 .debug_ranges  0x0000000000000088       0x30 rtos/list.o
 .debug_ranges  0x00000000000000b8       0x60 rtos/port.o
 .debug_ranges  0x0000000000000118      0x178 rtos/queue.o
 .debug_ranges  0x0000000000000290      0x290 rtos/tasks.o
 .debug_ranges  0x0000000000000520       0x20 rtos/opencm3.o
 .debug_ranges  0x0000000000000540      0x130 /home/renzo/Projects/hardware/stm32f103c8t6//rtos/libwwg/libwwg.a(uartlib.o)
 .debug_ranges  0x0000000000000670       0x70 /home/renzo/Projects/hardware/stm32f103c8t6//rtos/libwwg/libwwg.a(getline.o)
 .debug_ranges  0x00000000000006e0       0x28 /home/renzo/Projects/hardware/stm32f103c8t6/libopencm3/lib/libopencm3_stm32f1.a(gpio.o)
 .debug_ranges  0x0000000000000708       0x40 /home/renzo/Projects/hardware/stm32f103c8t6/libopencm3/lib/libopencm3_stm32f1.a(gpio_common_all.o)
 .debug_ranges  0x0000000000000748      0x1a8 /home/renzo/Projects/hardware/stm32f103c8t6/libopencm3/lib/libopencm3_stm32f1.a(rcc.o)
 .debug_ranges  0x00000000000008f0       0x58 /home/renzo/Projects/hardware/stm32f103c8t6/libopencm3/lib/libopencm3_stm32f1.a(rcc_common_all.o)
 .debug_ranges  0x0000000000000948       0xa8 /home/renzo/Projects/hardware/stm32f103c8t6/libopencm3/lib/libopencm3_stm32f1.a(usart_common_all.o)
 .debug_ranges  0x00000000000009f0       0x30 /home/renzo/Projects/hardware/stm32f103c8t6/libopencm3/lib/libopencm3_stm32f1.a(usart_common_f124.o)
 .debug_ranges  0x0000000000000a20       0x20 /home/renzo/Projects/hardware/stm32f103c8t6/libopencm3/lib/libopencm3_stm32f1.a(vector.o)
 .debug_ranges  0x0000000000000a40       0x50 /home/renzo/Projects/hardware/stm32f103c8t6/libopencm3/lib/libopencm3_stm32f1.a(nvic.o)
 .debug_ranges  0x0000000000000a90       0x28 /home/renzo/Projects/hardware/stm32f103c8t6/libopencm3/lib/libopencm3_stm32f1.a(flash_common_all.o)

.debug_line     0x0000000000000000     0x3cb4
 .debug_line    0x0000000000000000      0x31f main.o
 .debug_line    0x000000000000031f      0x207 rtos/heap_4.o
 .debug_line    0x0000000000000526      0x19c rtos/list.o
 .debug_line    0x00000000000006c2      0x1be rtos/port.o
 .debug_line    0x0000000000000880      0x48c rtos/queue.o
 .debug_line    0x0000000000000d0c      0x89a rtos/tasks.o
 .debug_line    0x00000000000015a6      0x12e rtos/opencm3.o
 .debug_line    0x00000000000016d4      0x63a /home/renzo/Projects/hardware/stm32f103c8t6//rtos/libwwg/libwwg.a(uartlib.o)
 .debug_line    0x0000000000001d0e      0x1c5 /home/renzo/Projects/hardware/stm32f103c8t6//rtos/libwwg/libwwg.a(getline.o)
 .debug_line    0x0000000000001ed3      0x294 /home/renzo/Projects/hardware/stm32f103c8t6/libopencm3/lib/libopencm3_stm32f1.a(gpio.o)
 .debug_line    0x0000000000002167      0x2ca /home/renzo/Projects/hardware/stm32f103c8t6/libopencm3/lib/libopencm3_stm32f1.a(gpio_common_all.o)
 .debug_line    0x0000000000002431      0x669 /home/renzo/Projects/hardware/stm32f103c8t6/libopencm3/lib/libopencm3_stm32f1.a(rcc.o)
 .debug_line    0x0000000000002a9a      0x2f5 /home/renzo/Projects/hardware/stm32f103c8t6/libopencm3/lib/libopencm3_stm32f1.a(rcc_common_all.o)
 .debug_line    0x0000000000002d8f      0x3f8 /home/renzo/Projects/hardware/stm32f103c8t6/libopencm3/lib/libopencm3_stm32f1.a(usart_common_all.o)
 .debug_line    0x0000000000003187      0x2eb /home/renzo/Projects/hardware/stm32f103c8t6/libopencm3/lib/libopencm3_stm32f1.a(usart_common_f124.o)
 .debug_line    0x0000000000003472      0x2e2 /home/renzo/Projects/hardware/stm32f103c8t6/libopencm3/lib/libopencm3_stm32f1.a(vector.o)
 .debug_line    0x0000000000003754      0x2a4 /home/renzo/Projects/hardware/stm32f103c8t6/libopencm3/lib/libopencm3_stm32f1.a(nvic.o)
 .debug_line    0x00000000000039f8      0x2bc /home/renzo/Projects/hardware/stm32f103c8t6/libopencm3/lib/libopencm3_stm32f1.a(flash_common_all.o)

.debug_str      0x0000000000000000    0x10487
 .debug_str     0x0000000000000000      0x8c9 main.o
                                        0x9aa (size before relaxing)
 .debug_str     0x00000000000008c9      0x1f2 rtos/heap_4.o
                                        0x770 (size before relaxing)
 .debug_str     0x0000000000000abb      0x12a rtos/list.o
                                        0x6cb (size before relaxing)
 .debug_str     0x0000000000000be5      0x183 rtos/port.o
                                        0x349 (size before relaxing)
 .debug_str     0x0000000000000d68      0x477 rtos/queue.o
                                        0xbdc (size before relaxing)
 .debug_str     0x00000000000011df      0x840 rtos/tasks.o
                                       0x11cf (size before relaxing)
 .debug_str     0x0000000000001a1f       0x40 rtos/opencm3.o
                                        0x253 (size before relaxing)
 .debug_str     0x0000000000001a5f      0x36a /home/renzo/Projects/hardware/stm32f103c8t6//rtos/libwwg/libwwg.a(uartlib.o)
                                        0xbeb (size before relaxing)
 .debug_str     0x0000000000001dc9       0x1e /home/renzo/Projects/hardware/stm32f103c8t6//rtos/libwwg/libwwg.a(getline.o)
                                        0x59e (size before relaxing)
 .debug_str     0x0000000000001de7     0x7b8f /home/renzo/Projects/hardware/stm32f103c8t6/libopencm3/lib/libopencm3_stm32f1.a(gpio.o)
                                       0x7d3e (size before relaxing)
 .debug_str     0x0000000000009976       0x74 /home/renzo/Projects/hardware/stm32f103c8t6/libopencm3/lib/libopencm3_stm32f1.a(gpio_common_all.o)
                                       0x7d32 (size before relaxing)
 .debug_str     0x00000000000099ea     0x30b6 /home/renzo/Projects/hardware/stm32f103c8t6/libopencm3/lib/libopencm3_stm32f1.a(rcc.o)
                                       0x7631 (size before relaxing)
 .debug_str     0x000000000000caa0      0x35b /home/renzo/Projects/hardware/stm32f103c8t6/libopencm3/lib/libopencm3_stm32f1.a(rcc_common_all.o)
                                       0x6f47 (size before relaxing)
 .debug_str     0x000000000000cdfb     0x10b2 /home/renzo/Projects/hardware/stm32f103c8t6/libopencm3/lib/libopencm3_stm32f1.a(usart_common_all.o)
                                       0x7b06 (size before relaxing)
 .debug_str     0x000000000000dead       0x2d /home/renzo/Projects/hardware/stm32f103c8t6/libopencm3/lib/libopencm3_stm32f1.a(usart_common_f124.o)
                                       0x7940 (size before relaxing)
 .debug_str     0x000000000000deda     0x2485 /home/renzo/Projects/hardware/stm32f103c8t6/libopencm3/lib/libopencm3_stm32f1.a(vector.o)
                                       0x5e10 (size before relaxing)
 .debug_str     0x000000000001035f       0xc4 /home/renzo/Projects/hardware/stm32f103c8t6/libopencm3/lib/libopencm3_stm32f1.a(nvic.o)
                                       0x53e9 (size before relaxing)
 .debug_str     0x0000000000010423       0x64 /home/renzo/Projects/hardware/stm32f103c8t6/libopencm3/lib/libopencm3_stm32f1.a(flash_common_all.o)
                                       0x4d0a (size before relaxing)

.comment        0x0000000000000000       0x7f
 .comment       0x0000000000000000       0x7f main.o
                                         0x80 (size before relaxing)
 .comment       0x000000000000007f       0x80 rtos/heap_4.o
 .comment       0x000000000000007f       0x80 rtos/list.o
 .comment       0x000000000000007f       0x80 rtos/port.o
 .comment       0x000000000000007f       0x80 rtos/queue.o
 .comment       0x000000000000007f       0x80 rtos/tasks.o
 .comment       0x000000000000007f       0x80 rtos/opencm3.o
 .comment       0x000000000000007f       0x80 /home/renzo/Projects/hardware/stm32f103c8t6//rtos/libwwg/libwwg.a(uartlib.o)
 .comment       0x000000000000007f       0x80 /home/renzo/Projects/hardware/stm32f103c8t6//rtos/libwwg/libwwg.a(getline.o)
 .comment       0x000000000000007f       0x80 /home/renzo/Projects/hardware/stm32f103c8t6/libopencm3/lib/libopencm3_stm32f1.a(gpio.o)
 .comment       0x000000000000007f       0x80 /home/renzo/Projects/hardware/stm32f103c8t6/libopencm3/lib/libopencm3_stm32f1.a(gpio_common_all.o)
 .comment       0x000000000000007f       0x80 /home/renzo/Projects/hardware/stm32f103c8t6/libopencm3/lib/libopencm3_stm32f1.a(rcc.o)
 .comment       0x000000000000007f       0x80 /home/renzo/Projects/hardware/stm32f103c8t6/libopencm3/lib/libopencm3_stm32f1.a(rcc_common_all.o)
 .comment       0x000000000000007f       0x80 /home/renzo/Projects/hardware/stm32f103c8t6/libopencm3/lib/libopencm3_stm32f1.a(usart_common_all.o)
 .comment       0x000000000000007f       0x80 /home/renzo/Projects/hardware/stm32f103c8t6/libopencm3/lib/libopencm3_stm32f1.a(usart_common_f124.o)
 .comment       0x000000000000007f       0x80 /home/renzo/Projects/hardware/stm32f103c8t6/libopencm3/lib/libopencm3_stm32f1.a(vector.o)
 .comment       0x000000000000007f       0x80 /home/renzo/Projects/hardware/stm32f103c8t6/libopencm3/lib/libopencm3_stm32f1.a(nvic.o)
 .comment       0x000000000000007f       0x80 /home/renzo/Projects/hardware/stm32f103c8t6/libopencm3/lib/libopencm3_stm32f1.a(flash_common_all.o)

.ARM.attributes
                0x0000000000000000       0x31
 .ARM.attributes
                0x0000000000000000       0x33 main.o
 .ARM.attributes
                0x0000000000000033       0x33 rtos/heap_4.o
 .ARM.attributes
                0x0000000000000066       0x33 rtos/list.o
 .ARM.attributes
                0x0000000000000099       0x33 rtos/port.o
 .ARM.attributes
                0x00000000000000cc       0x33 rtos/queue.o
 .ARM.attributes
                0x00000000000000ff       0x33 rtos/tasks.o
 .ARM.attributes
                0x0000000000000132       0x33 rtos/opencm3.o
 .ARM.attributes
                0x0000000000000165       0x1b /opt/gcc-arm/bin/../lib/gcc/arm-none-eabi/6.3.1/../../../../arm-none-eabi/lib/thumb/v7-m/libc.a(lib_a-memcpy.o)
 .ARM.attributes
                0x0000000000000180       0x33 /home/renzo/Projects/hardware/stm32f103c8t6//rtos/libwwg/libwwg.a(uartlib.o)
 .ARM.attributes
                0x00000000000001b3       0x33 /home/renzo/Projects/hardware/stm32f103c8t6//rtos/libwwg/libwwg.a(getline.o)
 .ARM.attributes
                0x00000000000001e6       0x33 /home/renzo/Projects/hardware/stm32f103c8t6/libopencm3/lib/libopencm3_stm32f1.a(gpio.o)
 .ARM.attributes
                0x0000000000000219       0x33 /home/renzo/Projects/hardware/stm32f103c8t6/libopencm3/lib/libopencm3_stm32f1.a(gpio_common_all.o)
 .ARM.attributes
                0x000000000000024c       0x33 /home/renzo/Projects/hardware/stm32f103c8t6/libopencm3/lib/libopencm3_stm32f1.a(rcc.o)
 .ARM.attributes
                0x000000000000027f       0x33 /home/renzo/Projects/hardware/stm32f103c8t6/libopencm3/lib/libopencm3_stm32f1.a(rcc_common_all.o)
 .ARM.attributes
                0x00000000000002b2       0x33 /home/renzo/Projects/hardware/stm32f103c8t6/libopencm3/lib/libopencm3_stm32f1.a(usart_common_all.o)
 .ARM.attributes
                0x00000000000002e5       0x33 /home/renzo/Projects/hardware/stm32f103c8t6/libopencm3/lib/libopencm3_stm32f1.a(usart_common_f124.o)
 .ARM.attributes
                0x0000000000000318       0x33 /home/renzo/Projects/hardware/stm32f103c8t6/libopencm3/lib/libopencm3_stm32f1.a(vector.o)
 .ARM.attributes
                0x000000000000034b       0x33 /home/renzo/Projects/hardware/stm32f103c8t6/libopencm3/lib/libopencm3_stm32f1.a(nvic.o)
 .ARM.attributes
                0x000000000000037e       0x33 /home/renzo/Projects/hardware/stm32f103c8t6/libopencm3/lib/libopencm3_stm32f1.a(flash_common_all.o)
 .ARM.attributes
                0x00000000000003b1       0x2d /opt/gcc-arm/bin/../lib/gcc/arm-none-eabi/6.3.1/../../../../arm-none-eabi/lib/thumb/v7-m/libc.a(lib_a-malloc.o)
 .ARM.attributes
                0x00000000000003de       0x2d /opt/gcc-arm/bin/../lib/gcc/arm-none-eabi/6.3.1/../../../../arm-none-eabi/lib/thumb/v7-m/libc.a(lib_a-mallocr.o)
 .ARM.attributes
                0x000000000000040b       0x2d /opt/gcc-arm/bin/../lib/gcc/arm-none-eabi/6.3.1/../../../../arm-none-eabi/lib/thumb/v7-m/libc.a(lib_a-memmove.o)
 .ARM.attributes
                0x0000000000000438       0x2d /opt/gcc-arm/bin/../lib/gcc/arm-none-eabi/6.3.1/../../../../arm-none-eabi/lib/thumb/v7-m/libc.a(lib_a-mlock.o)
 .ARM.attributes
                0x0000000000000465       0x2d /opt/gcc-arm/bin/../lib/gcc/arm-none-eabi/6.3.1/../../../../arm-none-eabi/lib/thumb/v7-m/libc.a(lib_a-sbrkr.o)
 .ARM.attributes
                0x0000000000000492       0x2d /opt/gcc-arm/bin/../lib/gcc/arm-none-eabi/6.3.1/../../../../arm-none-eabi/lib/thumb/v7-m/libc.a(lib_a-freer.o)
 .ARM.attributes
                0x00000000000004bf       0x2d /opt/gcc-arm/bin/../lib/gcc/arm-none-eabi/6.3.1/../../../../arm-none-eabi/lib/thumb/v7-m/libc.a(lib_a-impure.o)
 .ARM.attributes
                0x00000000000004ec       0x2d /opt/gcc-arm/bin/../lib/gcc/arm-none-eabi/6.3.1/../../../../arm-none-eabi/lib/thumb/v7-m/libc.a(lib_a-lock.o)
 .ARM.attributes
                0x0000000000000519       0x2d /opt/gcc-arm/bin/../lib/gcc/arm-none-eabi/6.3.1/../../../../arm-none-eabi/lib/thumb/v7-m/libc.a(lib_a-reent.o)
 .ARM.attributes
                0x0000000000000546       0x2d /opt/gcc-arm/bin/../lib/gcc/arm-none-eabi/6.3.1/../../../../arm-none-eabi/lib/thumb/v7-m/libnosys.a(sbrk.o)

.debug_frame    0x0000000000000000     0x175c
 .debug_frame   0x0000000000000000       0x90 main.o
 .debug_frame   0x0000000000000090       0x98 rtos/heap_4.o
 .debug_frame   0x0000000000000128       0x6c rtos/list.o
 .debug_frame   0x0000000000000194       0xd0 rtos/port.o
 .debug_frame   0x0000000000000264      0x208 rtos/queue.o
 .debug_frame   0x000000000000046c      0x484 rtos/tasks.o
 .debug_frame   0x00000000000008f0       0x40 rtos/opencm3.o
 .debug_frame   0x0000000000000930      0x3a4 /home/renzo/Projects/hardware/stm32f103c8t6//rtos/libwwg/libwwg.a(uartlib.o)
 .debug_frame   0x0000000000000cd4       0x3c /home/renzo/Projects/hardware/stm32f103c8t6//rtos/libwwg/libwwg.a(getline.o)
 .debug_frame   0x0000000000000d10       0x64 /home/renzo/Projects/hardware/stm32f103c8t6/libopencm3/lib/libopencm3_stm32f1.a(gpio.o)
 .debug_frame   0x0000000000000d74       0x80 /home/renzo/Projects/hardware/stm32f103c8t6/libopencm3/lib/libopencm3_stm32f1.a(gpio_common_all.o)
 .debug_frame   0x0000000000000df4      0x2e0 /home/renzo/Projects/hardware/stm32f103c8t6/libopencm3/lib/libopencm3_stm32f1.a(rcc.o)
 .debug_frame   0x00000000000010d4       0xd0 /home/renzo/Projects/hardware/stm32f103c8t6/libopencm3/lib/libopencm3_stm32f1.a(rcc_common_all.o)
 .debug_frame   0x00000000000011a4      0x170 /home/renzo/Projects/hardware/stm32f103c8t6/libopencm3/lib/libopencm3_stm32f1.a(usart_common_all.o)
 .debug_frame   0x0000000000001314       0x60 /home/renzo/Projects/hardware/stm32f103c8t6/libopencm3/lib/libopencm3_stm32f1.a(usart_common_f124.o)
 .debug_frame   0x0000000000001374       0x4c /home/renzo/Projects/hardware/stm32f103c8t6/libopencm3/lib/libopencm3_stm32f1.a(vector.o)
 .debug_frame   0x00000000000013c0       0xa0 /home/renzo/Projects/hardware/stm32f103c8t6/libopencm3/lib/libopencm3_stm32f1.a(nvic.o)
 .debug_frame   0x0000000000001460       0x50 /home/renzo/Projects/hardware/stm32f103c8t6/libopencm3/lib/libopencm3_stm32f1.a(flash_common_all.o)
 .debug_frame   0x00000000000014b0       0x30 /opt/gcc-arm/bin/../lib/gcc/arm-none-eabi/6.3.1/../../../../arm-none-eabi/lib/thumb/v7-m/libc.a(lib_a-malloc.o)
 .debug_frame   0x00000000000014e0       0x54 /opt/gcc-arm/bin/../lib/gcc/arm-none-eabi/6.3.1/../../../../arm-none-eabi/lib/thumb/v7-m/libc.a(lib_a-mallocr.o)
 .debug_frame   0x0000000000001534       0x30 /opt/gcc-arm/bin/../lib/gcc/arm-none-eabi/6.3.1/../../../../arm-none-eabi/lib/thumb/v7-m/libc.a(lib_a-memmove.o)
 .debug_frame   0x0000000000001564       0x30 /opt/gcc-arm/bin/../lib/gcc/arm-none-eabi/6.3.1/../../../../arm-none-eabi/lib/thumb/v7-m/libc.a(lib_a-mlock.o)
 .debug_frame   0x0000000000001594       0x2c /opt/gcc-arm/bin/../lib/gcc/arm-none-eabi/6.3.1/../../../../arm-none-eabi/lib/thumb/v7-m/libc.a(lib_a-sbrkr.o)
 .debug_frame   0x00000000000015c0       0x74 /opt/gcc-arm/bin/../lib/gcc/arm-none-eabi/6.3.1/../../../../arm-none-eabi/lib/thumb/v7-m/libc.a(lib_a-freer.o)
 .debug_frame   0x0000000000001634       0xb0 /opt/gcc-arm/bin/../lib/gcc/arm-none-eabi/6.3.1/../../../../arm-none-eabi/lib/thumb/v7-m/libc.a(lib_a-lock.o)
 .debug_frame   0x00000000000016e4       0x58 /opt/gcc-arm/bin/../lib/gcc/arm-none-eabi/6.3.1/../../../../arm-none-eabi/lib/thumb/v7-m/libc.a(lib_a-reent.o)
 .debug_frame   0x000000000000173c       0x20 /opt/gcc-arm/bin/../lib/gcc/arm-none-eabi/6.3.1/../../../../arm-none-eabi/lib/thumb/v7-m/libnosys.a(sbrk.o)

.debug_macro    0x0000000000000000     0x3c15
 .debug_macro   0x0000000000000000       0xb8 /home/renzo/Projects/hardware/stm32f103c8t6/libopencm3/lib/libopencm3_stm32f1.a(gpio.o)
 .debug_macro   0x00000000000000b8      0x8aa /home/renzo/Projects/hardware/stm32f103c8t6/libopencm3/lib/libopencm3_stm32f1.a(gpio.o)
 .debug_macro   0x0000000000000962       0x1c /home/renzo/Projects/hardware/stm32f103c8t6/libopencm3/lib/libopencm3_stm32f1.a(gpio.o)
 .debug_macro   0x000000000000097e       0x22 /home/renzo/Projects/hardware/stm32f103c8t6/libopencm3/lib/libopencm3_stm32f1.a(gpio.o)
 .debug_macro   0x00000000000009a0       0x4f /home/renzo/Projects/hardware/stm32f103c8t6/libopencm3/lib/libopencm3_stm32f1.a(gpio.o)
 .debug_macro   0x00000000000009ef       0x51 /home/renzo/Projects/hardware/stm32f103c8t6/libopencm3/lib/libopencm3_stm32f1.a(gpio.o)
 .debug_macro   0x0000000000000a40       0xef /home/renzo/Projects/hardware/stm32f103c8t6/libopencm3/lib/libopencm3_stm32f1.a(gpio.o)
 .debug_macro   0x0000000000000b2f       0x6a /home/renzo/Projects/hardware/stm32f103c8t6/libopencm3/lib/libopencm3_stm32f1.a(gpio.o)
 .debug_macro   0x0000000000000b99      0x1df /home/renzo/Projects/hardware/stm32f103c8t6/libopencm3/lib/libopencm3_stm32f1.a(gpio.o)
 .debug_macro   0x0000000000000d78       0x22 /home/renzo/Projects/hardware/stm32f103c8t6/libopencm3/lib/libopencm3_stm32f1.a(gpio.o)
 .debug_macro   0x0000000000000d9a       0xe8 /home/renzo/Projects/hardware/stm32f103c8t6/libopencm3/lib/libopencm3_stm32f1.a(gpio.o)
 .debug_macro   0x0000000000000e82       0x76 /home/renzo/Projects/hardware/stm32f103c8t6/libopencm3/lib/libopencm3_stm32f1.a(gpio.o)
 .debug_macro   0x0000000000000ef8      0x1b4 /home/renzo/Projects/hardware/stm32f103c8t6/libopencm3/lib/libopencm3_stm32f1.a(gpio.o)
 .debug_macro   0x00000000000010ac       0x76 /home/renzo/Projects/hardware/stm32f103c8t6/libopencm3/lib/libopencm3_stm32f1.a(gpio.o)
 .debug_macro   0x0000000000001122      0xe04 /home/renzo/Projects/hardware/stm32f103c8t6/libopencm3/lib/libopencm3_stm32f1.a(gpio.o)
 .debug_macro   0x0000000000001f26       0xb8 /home/renzo/Projects/hardware/stm32f103c8t6/libopencm3/lib/libopencm3_stm32f1.a(gpio_common_all.o)
 .debug_macro   0x0000000000001fde       0xe7 /home/renzo/Projects/hardware/stm32f103c8t6/libopencm3/lib/libopencm3_stm32f1.a(rcc.o)
 .debug_macro   0x00000000000020c5       0x16 /home/renzo/Projects/hardware/stm32f103c8t6/libopencm3/lib/libopencm3_stm32f1.a(rcc.o)
 .debug_macro   0x00000000000020db      0x82c /home/renzo/Projects/hardware/stm32f103c8t6/libopencm3/lib/libopencm3_stm32f1.a(rcc.o)
 .debug_macro   0x0000000000002907       0xee /home/renzo/Projects/hardware/stm32f103c8t6/libopencm3/lib/libopencm3_stm32f1.a(rcc.o)
 .debug_macro   0x00000000000029f5       0x82 /home/renzo/Projects/hardware/stm32f103c8t6/libopencm3/lib/libopencm3_stm32f1.a(rcc.o)
 .debug_macro   0x0000000000002a77       0xce /home/renzo/Projects/hardware/stm32f103c8t6/libopencm3/lib/libopencm3_stm32f1.a(rcc_common_all.o)
 .debug_macro   0x0000000000002b45       0xda /home/renzo/Projects/hardware/stm32f103c8t6/libopencm3/lib/libopencm3_stm32f1.a(usart_common_all.o)
 .debug_macro   0x0000000000002c1f       0x94 /home/renzo/Projects/hardware/stm32f103c8t6/libopencm3/lib/libopencm3_stm32f1.a(usart_common_all.o)
 .debug_macro   0x0000000000002cb3      0x29e /home/renzo/Projects/hardware/stm32f103c8t6/libopencm3/lib/libopencm3_stm32f1.a(usart_common_all.o)
 .debug_macro   0x0000000000002f51       0xda /home/renzo/Projects/hardware/stm32f103c8t6/libopencm3/lib/libopencm3_stm32f1.a(usart_common_f124.o)
 .debug_macro   0x000000000000302b       0xcf /home/renzo/Projects/hardware/stm32f103c8t6/libopencm3/lib/libopencm3_stm32f1.a(vector.o)
 .debug_macro   0x00000000000030fa      0x395 /home/renzo/Projects/hardware/stm32f103c8t6/libopencm3/lib/libopencm3_stm32f1.a(vector.o)
 .debug_macro   0x000000000000348f       0x6e /home/renzo/Projects/hardware/stm32f103c8t6/libopencm3/lib/libopencm3_stm32f1.a(vector.o)
 .debug_macro   0x00000000000034fd      0x1a2 /home/renzo/Projects/hardware/stm32f103c8t6/libopencm3/lib/libopencm3_stm32f1.a(vector.o)
 .debug_macro   0x000000000000369f       0xb3 /home/renzo/Projects/hardware/stm32f103c8t6/libopencm3/lib/libopencm3_stm32f1.a(nvic.o)
 .debug_macro   0x0000000000003752       0x68 /home/renzo/Projects/hardware/stm32f103c8t6/libopencm3/lib/libopencm3_stm32f1.a(nvic.o)
 .debug_macro   0x00000000000037ba      0x39b /home/renzo/Projects/hardware/stm32f103c8t6/libopencm3/lib/libopencm3_stm32f1.a(nvic.o)
 .debug_macro   0x0000000000003b55       0xc0 /home/renzo/Projects/hardware/stm32f103c8t6/libopencm3/lib/libopencm3_stm32f1.a(flash_common_all.o)
