Archive member included to satisfy reference by file (symbol)

/opt/gcc-arm/bin/../lib/gcc/arm-none-eabi/6.3.1/../../../../arm-none-eabi/lib/thumb/v7-m/libc.a(lib_a-memcpy.o)
                              rtos/queue.o (memcpy)
/home/renzo/Projects/hardware/stm32f103c8t6/libopencm3/lib/libopencm3_stm32f1.a(gpio.o)
                              uart.o (gpio_set_mode)
/home/renzo/Projects/hardware/stm32f103c8t6/libopencm3/lib/libopencm3_stm32f1.a(gpio_common_all.o)
                              uart.o (gpio_toggle)
/home/renzo/Projects/hardware/stm32f103c8t6/libopencm3/lib/libopencm3_stm32f1.a(rcc.o)
                              uart.o (rcc_clock_setup_in_hse_8mhz_out_72mhz)
/home/renzo/Projects/hardware/stm32f103c8t6/libopencm3/lib/libopencm3_stm32f1.a(rcc_common_all.o)
                              uart.o (rcc_periph_clock_enable)
/home/renzo/Projects/hardware/stm32f103c8t6/libopencm3/lib/libopencm3_stm32f1.a(usart_common_all.o)
                              uart.o (usart_set_baudrate)
/home/renzo/Projects/hardware/stm32f103c8t6/libopencm3/lib/libopencm3_stm32f1.a(usart_common_f124.o)
                              uart.o (usart_send)
/home/renzo/Projects/hardware/stm32f103c8t6/libopencm3/lib/libopencm3_stm32f1.a(vector.o)
                              (reset_handler)
/home/renzo/Projects/hardware/stm32f103c8t6/libopencm3/lib/libopencm3_stm32f1.a(assert.o)
                              /home/renzo/Projects/hardware/stm32f103c8t6/libopencm3/lib/libopencm3_stm32f1.a(rcc.o) (cm3_assert_failed)
/home/renzo/Projects/hardware/stm32f103c8t6/libopencm3/lib/libopencm3_stm32f1.a(flash_common_all.o)
                              /home/renzo/Projects/hardware/stm32f103c8t6/libopencm3/lib/libopencm3_stm32f1.a(rcc.o) (flash_set_ws)

Discarded input sections

 .text          0x0000000000000000        0x0 uart.o
 .data          0x0000000000000000        0x0 uart.o
 .bss           0x0000000000000000        0x0 uart.o
 .text          0x0000000000000000        0x0 rtos/heap_4.o
 .data          0x0000000000000000        0x0 rtos/heap_4.o
 .bss           0x0000000000000000        0x0 rtos/heap_4.o
 .text.xPortGetFreeHeapSize
                0x0000000000000000        0xc rtos/heap_4.o
 .text.xPortGetMinimumEverFreeHeapSize
                0x0000000000000000        0xc rtos/heap_4.o
 .text.vPortInitialiseBlocks
                0x0000000000000000        0x2 rtos/heap_4.o
 .text          0x0000000000000000        0x0 rtos/list.o
 .data          0x0000000000000000        0x0 rtos/list.o
 .bss           0x0000000000000000        0x0 rtos/list.o
 .text          0x0000000000000000        0x0 rtos/port.o
 .data          0x0000000000000000        0x0 rtos/port.o
 .bss           0x0000000000000000        0x0 rtos/port.o
Memory Configuration

Name             Origin             Length             Attributes
rom              0x0000000008000000 0x0000000000010000 xr
ram              0x0000000020000000 0x0000000000005000 xrw
*default*        0x0000000000000000 0xffffffffffffffff

Linker script and memory map

LOAD uart.o
LOAD rtos/heap_4.o
LOAD rtos/list.o
LOAD rtos/port.o
LOAD rtos/queue.o
LOAD rtos/tasks.o
LOAD rtos/opencm3.o
START GROUP
LOAD /opt/gcc-arm/bin/../lib/gcc/arm-none-eabi/6.3.1/../../../../arm-none-eabi/lib/thumb/v7-m/libc.a
LOAD /opt/gcc-arm/bin/../lib/gcc/arm-none-eabi/6.3.1/thumb/v7-m/libgcc.a
LOAD /opt/gcc-arm/bin/../lib/gcc/arm-none-eabi/6.3.1/../../../../arm-none-eabi/lib/thumb/v7-m/libnosys.a
END GROUP
LOAD /home/renzo/Projects/hardware/stm32f103c8t6//rtos/libwwg/libwwg.a
LOAD /home/renzo/Projects/hardware/stm32f103c8t6/libopencm3/lib/libopencm3_stm32f1.a
START GROUP
LOAD /opt/gcc-arm/bin/../lib/gcc/arm-none-eabi/6.3.1/thumb/v7-m/libgcc.a
LOAD /opt/gcc-arm/bin/../lib/gcc/arm-none-eabi/6.3.1/../../../../arm-none-eabi/lib/thumb/v7-m/libc.a
END GROUP
START GROUP
LOAD /opt/gcc-arm/bin/../lib/gcc/arm-none-eabi/6.3.1/thumb/v7-m/libgcc.a
LOAD /opt/gcc-arm/bin/../lib/gcc/arm-none-eabi/6.3.1/../../../../arm-none-eabi/lib/thumb/v7-m/libc.a
LOAD /opt/gcc-arm/bin/../lib/gcc/arm-none-eabi/6.3.1/../../../../arm-none-eabi/lib/thumb/v7-m/libnosys.a
END GROUP

.text           0x0000000008000000     0x16d8
 *(.vectors)
 .vectors       0x0000000008000000      0x150 /home/renzo/Projects/hardware/stm32f103c8t6/libopencm3/lib/libopencm3_stm32f1.a(vector.o)
                0x0000000008000000                vector_table
 *(.text*)
 .text.uart_puts
                0x0000000008000150       0x24 uart.o
 .text.demo_task
                0x0000000008000174       0x24 uart.o
 .text.uart_task
                0x0000000008000198       0x5c uart.o
 .text.startup.main
                0x00000000080001f4       0xcc uart.o
                0x00000000080001f4                main
 .text.prvInsertBlockIntoFreeList
                0x00000000080002c0       0x48 rtos/heap_4.o
 .text.pvPortMalloc
                0x0000000008000308       0xf4 rtos/heap_4.o
                0x0000000008000308                pvPortMalloc
 .text.vPortFree
                0x00000000080003fc       0x4c rtos/heap_4.o
                0x00000000080003fc                vPortFree
 .text.vListInitialise
                0x0000000008000448       0x16 rtos/list.o
                0x0000000008000448                vListInitialise
 .text.vListInitialiseItem
                0x000000000800045e        0x6 rtos/list.o
                0x000000000800045e                vListInitialiseItem
 .text.vListInsertEnd
                0x0000000008000464       0x18 rtos/list.o
                0x0000000008000464                vListInsertEnd
 .text.vListInsert
                0x000000000800047c       0x2e rtos/list.o
                0x000000000800047c                vListInsert
 .text.uxListRemove
                0x00000000080004aa       0x20 rtos/list.o
                0x00000000080004aa                uxListRemove
 .text.prvTaskExitError
                0x00000000080004ca       0x12 rtos/port.o
 .text.prvPortStartFirstTask
                0x00000000080004dc       0x20 rtos/port.o
 .text.pxPortInitialiseStack
                0x00000000080004fc       0x24 rtos/port.o
                0x00000000080004fc                pxPortInitialiseStack
 .text.vPortSVCHandler
                0x0000000008000520       0x24 rtos/port.o
                0x0000000008000520                vPortSVCHandler
 .text.vPortEnterCritical
                0x0000000008000544       0x20 rtos/port.o
                0x0000000008000544                vPortEnterCritical
 .text.vPortExitCritical
                0x0000000008000564       0x14 rtos/port.o
                0x0000000008000564                vPortExitCritical
 *fill*         0x0000000008000578        0x8 
 .text.xPortPendSVHandler
                0x0000000008000580       0x44 rtos/port.o
                0x0000000008000580                xPortPendSVHandler
 .text.xPortSysTickHandler
                0x00000000080005c4       0x2c rtos/port.o
                0x00000000080005c4                xPortSysTickHandler
 .text.vPortSetupTimerInterrupt
                0x00000000080005f0       0x14 rtos/port.o
                0x00000000080005f0                vPortSetupTimerInterrupt
 .text.xPortStartScheduler
                0x0000000008000604       0x30 rtos/port.o
                0x0000000008000604                xPortStartScheduler
 .text.prvCopyDataToQueue
                0x0000000008000634       0x66 rtos/queue.o
 .text.prvCopyDataFromQueue
                0x000000000800069a       0x28 rtos/queue.o
 .text.prvUnlockQueue
                0x00000000080006c2       0x70 rtos/queue.o
 *fill*         0x0000000008000732        0x2 
 .text.xQueueGenericReset
                0x0000000008000734       0x6c rtos/queue.o
                0x0000000008000734                xQueueGenericReset
 .text.xQueueGenericCreate
                0x00000000080007a0       0x2e rtos/queue.o
                0x00000000080007a0                xQueueGenericCreate
 *fill*         0x00000000080007ce        0x2 
 .text.xQueueGenericSend
                0x00000000080007d0       0xf4 rtos/queue.o
                0x00000000080007d0                xQueueGenericSend
 .text.xQueueGenericReceive
                0x00000000080008c4      0x134 rtos/queue.o
                0x00000000080008c4                xQueueGenericReceive
 .text.prvResetNextTaskUnblockTime
                0x00000000080009f8       0x24 rtos/tasks.o
 .text.prvAddCurrentTaskToDelayedList
                0x0000000008000a1c       0x8c rtos/tasks.o
 .text.xTaskCreate
                0x0000000008000aa8      0x1c0 rtos/tasks.o
                0x0000000008000aa8                xTaskCreate
 .text.vTaskStartScheduler
                0x0000000008000c68       0x60 rtos/tasks.o
                0x0000000008000c68                vTaskStartScheduler
 .text.vTaskSuspendAll
                0x0000000008000cc8       0x10 rtos/tasks.o
                0x0000000008000cc8                vTaskSuspendAll
 .text.xTaskIncrementTick
                0x0000000008000cd8      0x10c rtos/tasks.o
                0x0000000008000cd8                xTaskIncrementTick
 .text.xTaskResumeAll
                0x0000000008000de4       0xd8 rtos/tasks.o
                0x0000000008000de4                xTaskResumeAll
 .text.vTaskDelay
                0x0000000008000ebc       0x30 rtos/tasks.o
                0x0000000008000ebc                vTaskDelay
 .text.prvIdleTask
                0x0000000008000eec       0x74 rtos/tasks.o
 .text.vTaskSwitchContext
                0x0000000008000f60       0x60 rtos/tasks.o
                0x0000000008000f60                vTaskSwitchContext
 .text.vTaskPlaceOnEventList
                0x0000000008000fc0       0x20 rtos/tasks.o
                0x0000000008000fc0                vTaskPlaceOnEventList
 .text.xTaskRemoveFromEventList
                0x0000000008000fe0       0x70 rtos/tasks.o
                0x0000000008000fe0                xTaskRemoveFromEventList
 .text.vTaskSetTimeOutState
                0x0000000008001050       0x18 rtos/tasks.o
                0x0000000008001050                vTaskSetTimeOutState
 .text.xTaskCheckForTimeOut
                0x0000000008001068       0x4c rtos/tasks.o
                0x0000000008001068                xTaskCheckForTimeOut
 .text.vTaskMissedYield
                0x00000000080010b4        0xc rtos/tasks.o
                0x00000000080010b4                vTaskMissedYield
 .text.vTaskPriorityInherit
                0x00000000080010c0       0x90 rtos/tasks.o
                0x00000000080010c0                vTaskPriorityInherit
 .text.xTaskPriorityDisinherit
                0x0000000008001150       0x70 rtos/tasks.o
                0x0000000008001150                xTaskPriorityDisinherit
 .text.pvTaskIncrementMutexHeldCount
                0x00000000080011c0       0x18 rtos/tasks.o
                0x00000000080011c0                pvTaskIncrementMutexHeldCount
 .text.sv_call_handler
                0x00000000080011d8        0x4 rtos/opencm3.o
                0x00000000080011d8                sv_call_handler
 .text.pend_sv_handler
                0x00000000080011dc        0x4 rtos/opencm3.o
                0x00000000080011dc                pend_sv_handler
 .text.sys_tick_handler
                0x00000000080011e0        0x4 rtos/opencm3.o
                0x00000000080011e0                sys_tick_handler
 .text          0x00000000080011e4       0xec /opt/gcc-arm/bin/../lib/gcc/arm-none-eabi/6.3.1/../../../../arm-none-eabi/lib/thumb/v7-m/libc.a(lib_a-memcpy.o)
                0x00000000080011e4                memcpy
 .text.gpio_set_mode
                0x00000000080012d0       0x62 /home/renzo/Projects/hardware/stm32f103c8t6/libopencm3/lib/libopencm3_stm32f1.a(gpio.o)
                0x00000000080012d0                gpio_set_mode
 .text.gpio_toggle
                0x0000000008001332       0x12 /home/renzo/Projects/hardware/stm32f103c8t6/libopencm3/lib/libopencm3_stm32f1.a(gpio_common_all.o)
                0x0000000008001332                gpio_toggle
 .text.rcc_osc_on.part.1
                0x0000000008001344       0x10 /home/renzo/Projects/hardware/stm32f103c8t6/libopencm3/lib/libopencm3_stm32f1.a(rcc.o)
 .text.rcc_is_osc_ready
                0x0000000008001354       0x5c /home/renzo/Projects/hardware/stm32f103c8t6/libopencm3/lib/libopencm3_stm32f1.a(rcc.o)
                0x0000000008001354                rcc_is_osc_ready
 .text.rcc_wait_for_osc_ready
                0x00000000080013b0       0x10 /home/renzo/Projects/hardware/stm32f103c8t6/libopencm3/lib/libopencm3_stm32f1.a(rcc.o)
                0x00000000080013b0                rcc_wait_for_osc_ready
 .text.rcc_osc_on
                0x00000000080013c0       0x54 /home/renzo/Projects/hardware/stm32f103c8t6/libopencm3/lib/libopencm3_stm32f1.a(rcc.o)
                0x00000000080013c0                rcc_osc_on
 .text.rcc_set_sysclk_source
                0x0000000008001414       0x14 /home/renzo/Projects/hardware/stm32f103c8t6/libopencm3/lib/libopencm3_stm32f1.a(rcc.o)
                0x0000000008001414                rcc_set_sysclk_source
 .text.rcc_set_pll_multiplication_factor
                0x0000000008001428       0x14 /home/renzo/Projects/hardware/stm32f103c8t6/libopencm3/lib/libopencm3_stm32f1.a(rcc.o)
                0x0000000008001428                rcc_set_pll_multiplication_factor
 .text.rcc_set_pll_source
                0x000000000800143c       0x14 /home/renzo/Projects/hardware/stm32f103c8t6/libopencm3/lib/libopencm3_stm32f1.a(rcc.o)
                0x000000000800143c                rcc_set_pll_source
 .text.rcc_set_pllxtpre
                0x0000000008001450       0x14 /home/renzo/Projects/hardware/stm32f103c8t6/libopencm3/lib/libopencm3_stm32f1.a(rcc.o)
                0x0000000008001450                rcc_set_pllxtpre
 .text.rcc_set_adcpre
                0x0000000008001464       0x14 /home/renzo/Projects/hardware/stm32f103c8t6/libopencm3/lib/libopencm3_stm32f1.a(rcc.o)
                0x0000000008001464                rcc_set_adcpre
 .text.rcc_set_ppre2
                0x0000000008001478       0x14 /home/renzo/Projects/hardware/stm32f103c8t6/libopencm3/lib/libopencm3_stm32f1.a(rcc.o)
                0x0000000008001478                rcc_set_ppre2
 .text.rcc_set_ppre1
                0x000000000800148c       0x14 /home/renzo/Projects/hardware/stm32f103c8t6/libopencm3/lib/libopencm3_stm32f1.a(rcc.o)
                0x000000000800148c                rcc_set_ppre1
 .text.rcc_set_hpre
                0x00000000080014a0       0x14 /home/renzo/Projects/hardware/stm32f103c8t6/libopencm3/lib/libopencm3_stm32f1.a(rcc.o)
                0x00000000080014a0                rcc_set_hpre
 .text.rcc_clock_setup_in_hse_8mhz_out_72mhz
                0x00000000080014b4       0x8c /home/renzo/Projects/hardware/stm32f103c8t6/libopencm3/lib/libopencm3_stm32f1.a(rcc.o)
                0x00000000080014b4                rcc_clock_setup_in_hse_8mhz_out_72mhz
 .text.rcc_periph_clock_enable
                0x0000000008001540       0x1a /home/renzo/Projects/hardware/stm32f103c8t6/libopencm3/lib/libopencm3_stm32f1.a(rcc_common_all.o)
                0x0000000008001540                rcc_periph_clock_enable
 *fill*         0x000000000800155a        0x2 
 .text.usart_set_baudrate
                0x000000000800155c       0x28 /home/renzo/Projects/hardware/stm32f103c8t6/libopencm3/lib/libopencm3_stm32f1.a(usart_common_all.o)
                0x000000000800155c                usart_set_baudrate
 .text.usart_set_databits
                0x0000000008001584       0x12 /home/renzo/Projects/hardware/stm32f103c8t6/libopencm3/lib/libopencm3_stm32f1.a(usart_common_all.o)
                0x0000000008001584                usart_set_databits
 .text.usart_set_stopbits
                0x0000000008001596        0xc /home/renzo/Projects/hardware/stm32f103c8t6/libopencm3/lib/libopencm3_stm32f1.a(usart_common_all.o)
                0x0000000008001596                usart_set_stopbits
 .text.usart_set_parity
                0x00000000080015a2        0xc /home/renzo/Projects/hardware/stm32f103c8t6/libopencm3/lib/libopencm3_stm32f1.a(usart_common_all.o)
                0x00000000080015a2                usart_set_parity
 .text.usart_set_mode
                0x00000000080015ae        0xc /home/renzo/Projects/hardware/stm32f103c8t6/libopencm3/lib/libopencm3_stm32f1.a(usart_common_all.o)
                0x00000000080015ae                usart_set_mode
 .text.usart_set_flow_control
                0x00000000080015ba        0xc /home/renzo/Projects/hardware/stm32f103c8t6/libopencm3/lib/libopencm3_stm32f1.a(usart_common_all.o)
                0x00000000080015ba                usart_set_flow_control
 .text.usart_enable
                0x00000000080015c6        0xa /home/renzo/Projects/hardware/stm32f103c8t6/libopencm3/lib/libopencm3_stm32f1.a(usart_common_all.o)
                0x00000000080015c6                usart_enable
 .text.usart_send
                0x00000000080015d0        0x8 /home/renzo/Projects/hardware/stm32f103c8t6/libopencm3/lib/libopencm3_stm32f1.a(usart_common_f124.o)
                0x00000000080015d0                usart_send
 .text.usart_get_flag
                0x00000000080015d8        0xc /home/renzo/Projects/hardware/stm32f103c8t6/libopencm3/lib/libopencm3_stm32f1.a(usart_common_f124.o)
                0x00000000080015d8                usart_get_flag
 .text.blocking_handler
                0x00000000080015e4        0x2 /home/renzo/Projects/hardware/stm32f103c8t6/libopencm3/lib/libopencm3_stm32f1.a(vector.o)
                0x00000000080015e4                usart3_isr
                0x00000000080015e4                rtc_isr
                0x00000000080015e4                tim7_isr
                0x00000000080015e4                adc1_2_isr
                0x00000000080015e4                tim1_trg_com_isr
                0x00000000080015e4                usb_hp_can_tx_isr
                0x00000000080015e4                tim6_isr
                0x00000000080015e4                usb_wakeup_isr
                0x00000000080015e4                blocking_handler
                0x00000000080015e4                tim5_isr
                0x00000000080015e4                otg_fs_isr
                0x00000000080015e4                spi1_isr
                0x00000000080015e4                exti2_isr
                0x00000000080015e4                dma1_channel6_isr
                0x00000000080015e4                can_rx1_isr
                0x00000000080015e4                dma1_channel5_isr
                0x00000000080015e4                dma2_channel5_isr
                0x00000000080015e4                usart1_isr
                0x00000000080015e4                usage_fault_handler
                0x00000000080015e4                tim8_trg_com_isr
                0x00000000080015e4                can2_rx0_isr
                0x00000000080015e4                tim1_brk_isr
                0x00000000080015e4                can2_rx1_isr
                0x00000000080015e4                tim1_cc_isr
                0x00000000080015e4                sdio_isr
                0x00000000080015e4                eth_isr
                0x00000000080015e4                dma1_channel4_isr
                0x00000000080015e4                tim8_brk_isr
                0x00000000080015e4                dma2_channel4_5_isr
                0x00000000080015e4                pvd_isr
                0x00000000080015e4                rcc_isr
                0x00000000080015e4                flash_isr
                0x00000000080015e4                uart4_isr
                0x00000000080015e4                rtc_alarm_isr
                0x00000000080015e4                exti15_10_isr
                0x00000000080015e4                hard_fault_handler
                0x00000000080015e4                exti1_isr
                0x00000000080015e4                i2c1_ev_isr
                0x00000000080015e4                dma2_channel1_isr
                0x00000000080015e4                spi2_isr
                0x00000000080015e4                tim8_up_isr
                0x00000000080015e4                dma2_channel2_isr
                0x00000000080015e4                exti3_isr
                0x00000000080015e4                adc3_isr
                0x00000000080015e4                tim3_isr
                0x00000000080015e4                usart2_isr
                0x00000000080015e4                usb_lp_can_rx0_isr
                0x00000000080015e4                i2c2_er_isr
                0x00000000080015e4                i2c2_ev_isr
                0x00000000080015e4                uart5_isr
                0x00000000080015e4                fsmc_isr
                0x00000000080015e4                dma1_channel1_isr
                0x00000000080015e4                exti4_isr
                0x00000000080015e4                mem_manage_handler
                0x00000000080015e4                can2_tx_isr
                0x00000000080015e4                exti9_5_isr
                0x00000000080015e4                dma2_channel3_isr
                0x00000000080015e4                dma1_channel7_isr
                0x00000000080015e4                tim1_up_isr
                0x00000000080015e4                can2_sce_isr
                0x00000000080015e4                tim4_isr
                0x00000000080015e4                dma1_channel2_isr
                0x00000000080015e4                i2c1_er_isr
                0x00000000080015e4                can_sce_isr
                0x00000000080015e4                tim8_cc_isr
                0x00000000080015e4                tamper_isr
                0x00000000080015e4                eth_wkup_isr
                0x00000000080015e4                bus_fault_handler
                0x00000000080015e4                wwdg_isr
                0x00000000080015e4                dma1_channel3_isr
                0x00000000080015e4                spi3_isr
                0x00000000080015e4                tim2_isr
                0x00000000080015e4                exti0_isr
 .text.null_handler
                0x00000000080015e6        0x2 /home/renzo/Projects/hardware/stm32f103c8t6/libopencm3/lib/libopencm3_stm32f1.a(vector.o)
                0x00000000080015e6                null_handler
                0x00000000080015e6                debug_monitor_handler
                0x00000000080015e6                nmi_handler
 .text.reset_handler
                0x00000000080015e8       0x94 /home/renzo/Projects/hardware/stm32f103c8t6/libopencm3/lib/libopencm3_stm32f1.a(vector.o)
                0x00000000080015e8                reset_handler
 .text.flash_set_ws
                0x000000000800167c       0x14 /home/renzo/Projects/hardware/stm32f103c8t6/libopencm3/lib/libopencm3_stm32f1.a(flash_common_all.o)
                0x000000000800167c                flash_set_ws
                0x0000000008001690                . = ALIGN (0x4)
 *(.rodata*)
 .rodata.demo_task.str1.1
                0x0000000008001690       0x39 uart.o
 .rodata.main.str1.1
                0x00000000080016c9        0xa uart.o
 .rodata.vTaskStartScheduler.str1.1
                0x00000000080016d3        0x5 rtos/tasks.o
                0x00000000080016d8                . = ALIGN (0x4)

.glue_7         0x00000000080016d8        0x0
 .glue_7        0x00000000080016d8        0x0 linker stubs

.glue_7t        0x00000000080016d8        0x0
 .glue_7t       0x00000000080016d8        0x0 linker stubs

.vfp11_veneer   0x00000000080016d8        0x0
 .vfp11_veneer  0x00000000080016d8        0x0 linker stubs

.v4_bx          0x00000000080016d8        0x0
 .v4_bx         0x00000000080016d8        0x0 linker stubs

.iplt           0x00000000080016d8        0x0
 .iplt          0x00000000080016d8        0x0 uart.o

.rel.dyn        0x00000000080016d8        0x0
 .rel.iplt      0x00000000080016d8        0x0 uart.o

.preinit_array  0x00000000080016d8        0x0
                0x00000000080016d8                . = ALIGN (0x4)
                0x00000000080016d8                __preinit_array_start = .
 *(.preinit_array)
                0x00000000080016d8                __preinit_array_end = .

.init_array     0x00000000080016d8        0x0
                0x00000000080016d8                . = ALIGN (0x4)
                0x00000000080016d8                __init_array_start = .
 *(SORT(.init_array.*))
 *(.init_array)
                0x00000000080016d8                __init_array_end = .

.fini_array     0x00000000080016d8        0x0
                0x00000000080016d8                . = ALIGN (0x4)
                0x00000000080016d8                __fini_array_start = .
 *(.fini_array)
 *(SORT(.fini_array.*))
                0x00000000080016d8                __fini_array_end = .

.ARM.extab
 *(.ARM.extab*)

.ARM.exidx      0x00000000080016d8        0x0
                0x00000000080016d8                __exidx_start = .
 *(.ARM.exidx*)
                0x00000000080016d8                __exidx_end = .
                0x00000000080016d8                . = ALIGN (0x4)
                0x00000000080016d8                _etext = .

.data           0x0000000020000000       0x10 load address 0x00000000080016d8
                0x0000000020000000                _data = .
 *(.data*)
 .data.uxCriticalNesting
                0x0000000020000000        0x4 rtos/port.o
 .data.rcc_ahb_frequency
                0x0000000020000004        0x4 /home/renzo/Projects/hardware/stm32f103c8t6/libopencm3/lib/libopencm3_stm32f1.a(rcc.o)
                0x0000000020000004                rcc_ahb_frequency
 .data.rcc_apb1_frequency
                0x0000000020000008        0x4 /home/renzo/Projects/hardware/stm32f103c8t6/libopencm3/lib/libopencm3_stm32f1.a(rcc.o)
                0x0000000020000008                rcc_apb1_frequency
 .data.rcc_apb2_frequency
                0x000000002000000c        0x4 /home/renzo/Projects/hardware/stm32f103c8t6/libopencm3/lib/libopencm3_stm32f1.a(rcc.o)
                0x000000002000000c                rcc_apb2_frequency
                0x0000000020000010                . = ALIGN (0x4)
                0x0000000020000010                _edata = .
                0x00000000080016d8                _data_loadaddr = LOADADDR (.data)

.igot.plt       0x0000000020000010        0x0 load address 0x00000000080016e8
 .igot.plt      0x0000000020000010        0x0 uart.o

.bss            0x0000000020000010     0x4520 load address 0x00000000080016e8
 *(.bss*)
 .bss.uart_txq  0x0000000020000010        0x4 uart.o
 .bss.pxEnd     0x0000000020000014        0x4 rtos/heap_4.o
 .bss.ucHeap    0x0000000020000018     0x4400 rtos/heap_4.o
 .bss.xBlockAllocatedBit
                0x0000000020004418        0x4 rtos/heap_4.o
 .bss.xFreeBytesRemaining
                0x000000002000441c        0x4 rtos/heap_4.o
 .bss.xMinimumEverFreeBytesRemaining
                0x0000000020004420        0x4 rtos/heap_4.o
 .bss.xStart    0x0000000020004424        0x8 rtos/heap_4.o
 .bss.pxCurrentTCB
                0x000000002000442c        0x4 rtos/tasks.o
                0x000000002000442c                pxCurrentTCB
 .bss.pxDelayedTaskList
                0x0000000020004430        0x4 rtos/tasks.o
 .bss.pxOverflowDelayedTaskList
                0x0000000020004434        0x4 rtos/tasks.o
 .bss.pxReadyTasksLists
                0x0000000020004438       0x64 rtos/tasks.o
 .bss.uxCurrentNumberOfTasks
                0x000000002000449c        0x4 rtos/tasks.o
 .bss.uxDeletedTasksWaitingCleanUp
                0x00000000200044a0        0x4 rtos/tasks.o
 .bss.uxPendedTicks
                0x00000000200044a4        0x4 rtos/tasks.o
 .bss.uxSchedulerSuspended
                0x00000000200044a8        0x4 rtos/tasks.o
 .bss.uxTaskNumber
                0x00000000200044ac        0x4 rtos/tasks.o
 .bss.uxTopReadyPriority
                0x00000000200044b0        0x4 rtos/tasks.o
 .bss.xDelayedTaskList1
                0x00000000200044b4       0x14 rtos/tasks.o
 .bss.xDelayedTaskList2
                0x00000000200044c8       0x14 rtos/tasks.o
 .bss.xIdleTaskHandle
                0x00000000200044dc        0x4 rtos/tasks.o
 .bss.xNextTaskUnblockTime
                0x00000000200044e0        0x4 rtos/tasks.o
 .bss.xNumOfOverflows
                0x00000000200044e4        0x4 rtos/tasks.o
 .bss.xPendingReadyList
                0x00000000200044e8       0x14 rtos/tasks.o
 .bss.xSchedulerRunning
                0x00000000200044fc        0x4 rtos/tasks.o
 .bss.xSuspendedTaskList
                0x0000000020004500       0x14 rtos/tasks.o
 .bss.xTasksWaitingTermination
                0x0000000020004514       0x14 rtos/tasks.o
 .bss.xTickCount
                0x0000000020004528        0x4 rtos/tasks.o
 .bss.xYieldPending
                0x000000002000452c        0x4 rtos/tasks.o
 *(COMMON)
                0x0000000020004530                . = ALIGN (0x4)
                0x0000000020004530                _ebss = .

/DISCARD/
 *(.eh_frame)
                0x0000000020004530                . = ALIGN (0x4)
                0x0000000020004530                end = .
                0x0000000020005000                PROVIDE (_stack, (ORIGIN (ram) + LENGTH (ram)))
OUTPUT(uart.elf elf32-littlearm)

.debug_info     0x0000000000000000     0x8774
 .debug_info    0x0000000000000000      0x6e4 uart.o
 .debug_info    0x00000000000006e4      0xbdb rtos/heap_4.o
 .debug_info    0x00000000000012bf      0xab3 rtos/list.o
 .debug_info    0x0000000000001d72      0x302 rtos/port.o
 .debug_info    0x0000000000002074     0x1a57 rtos/queue.o
 .debug_info    0x0000000000003acb     0x263c rtos/tasks.o
 .debug_info    0x0000000000006107      0x132 rtos/opencm3.o
 .debug_info    0x0000000000006239      0x1dd /home/renzo/Projects/hardware/stm32f103c8t6/libopencm3/lib/libopencm3_stm32f1.a(gpio.o)
 .debug_info    0x0000000000006416      0x22c /home/renzo/Projects/hardware/stm32f103c8t6/libopencm3/lib/libopencm3_stm32f1.a(gpio_common_all.o)
 .debug_info    0x0000000000006642     0x114b /home/renzo/Projects/hardware/stm32f103c8t6/libopencm3/lib/libopencm3_stm32f1.a(rcc.o)
 .debug_info    0x000000000000778d      0x5f2 /home/renzo/Projects/hardware/stm32f103c8t6/libopencm3/lib/libopencm3_stm32f1.a(rcc_common_all.o)
 .debug_info    0x0000000000007d7f      0x4c0 /home/renzo/Projects/hardware/stm32f103c8t6/libopencm3/lib/libopencm3_stm32f1.a(usart_common_all.o)
 .debug_info    0x000000000000823f      0x19a /home/renzo/Projects/hardware/stm32f103c8t6/libopencm3/lib/libopencm3_stm32f1.a(usart_common_f124.o)
 .debug_info    0x00000000000083d9      0x2af /home/renzo/Projects/hardware/stm32f103c8t6/libopencm3/lib/libopencm3_stm32f1.a(vector.o)
 .debug_info    0x0000000000008688       0xec /home/renzo/Projects/hardware/stm32f103c8t6/libopencm3/lib/libopencm3_stm32f1.a(flash_common_all.o)

.debug_abbrev   0x0000000000000000     0x1964
 .debug_abbrev  0x0000000000000000      0x15a uart.o
 .debug_abbrev  0x000000000000015a      0x303 rtos/heap_4.o
 .debug_abbrev  0x000000000000045d      0x208 rtos/list.o
 .debug_abbrev  0x0000000000000665      0x1d4 rtos/port.o
 .debug_abbrev  0x0000000000000839      0x369 rtos/queue.o
 .debug_abbrev  0x0000000000000ba2      0x469 rtos/tasks.o
 .debug_abbrev  0x000000000000100b       0x81 rtos/opencm3.o
 .debug_abbrev  0x000000000000108c       0xb7 /home/renzo/Projects/hardware/stm32f103c8t6/libopencm3/lib/libopencm3_stm32f1.a(gpio.o)
 .debug_abbrev  0x0000000000001143       0xf4 /home/renzo/Projects/hardware/stm32f103c8t6/libopencm3/lib/libopencm3_stm32f1.a(gpio_common_all.o)
 .debug_abbrev  0x0000000000001237      0x27f /home/renzo/Projects/hardware/stm32f103c8t6/libopencm3/lib/libopencm3_stm32f1.a(rcc.o)
 .debug_abbrev  0x00000000000014b6      0x137 /home/renzo/Projects/hardware/stm32f103c8t6/libopencm3/lib/libopencm3_stm32f1.a(rcc_common_all.o)
 .debug_abbrev  0x00000000000015ed      0x10f /home/renzo/Projects/hardware/stm32f103c8t6/libopencm3/lib/libopencm3_stm32f1.a(usart_common_all.o)
 .debug_abbrev  0x00000000000016fc       0xb7 /home/renzo/Projects/hardware/stm32f103c8t6/libopencm3/lib/libopencm3_stm32f1.a(usart_common_f124.o)
 .debug_abbrev  0x00000000000017b3      0x127 /home/renzo/Projects/hardware/stm32f103c8t6/libopencm3/lib/libopencm3_stm32f1.a(vector.o)
 .debug_abbrev  0x00000000000018da       0x8a /home/renzo/Projects/hardware/stm32f103c8t6/libopencm3/lib/libopencm3_stm32f1.a(flash_common_all.o)

.debug_loc      0x0000000000000000     0x30ee
 .debug_loc     0x0000000000000000       0x83 uart.o
 .debug_loc     0x0000000000000083      0x34c rtos/heap_4.o
 .debug_loc     0x00000000000003cf       0x94 rtos/list.o
 .debug_loc     0x0000000000000463       0xa8 rtos/port.o
 .debug_loc     0x000000000000050b      0xce7 rtos/queue.o
 .debug_loc     0x00000000000011f2     0x1415 rtos/tasks.o
 .debug_loc     0x0000000000002607      0x172 /home/renzo/Projects/hardware/stm32f103c8t6/libopencm3/lib/libopencm3_stm32f1.a(gpio.o)
 .debug_loc     0x0000000000002779       0x97 /home/renzo/Projects/hardware/stm32f103c8t6/libopencm3/lib/libopencm3_stm32f1.a(gpio_common_all.o)
 .debug_loc     0x0000000000002810      0x480 /home/renzo/Projects/hardware/stm32f103c8t6/libopencm3/lib/libopencm3_stm32f1.a(rcc.o)
 .debug_loc     0x0000000000002c90      0x108 /home/renzo/Projects/hardware/stm32f103c8t6/libopencm3/lib/libopencm3_stm32f1.a(rcc_common_all.o)
 .debug_loc     0x0000000000002d98      0x1ca /home/renzo/Projects/hardware/stm32f103c8t6/libopencm3/lib/libopencm3_stm32f1.a(usart_common_all.o)
 .debug_loc     0x0000000000002f62       0x63 /home/renzo/Projects/hardware/stm32f103c8t6/libopencm3/lib/libopencm3_stm32f1.a(usart_common_f124.o)
 .debug_loc     0x0000000000002fc5       0xea /home/renzo/Projects/hardware/stm32f103c8t6/libopencm3/lib/libopencm3_stm32f1.a(vector.o)
 .debug_loc     0x00000000000030af       0x3f /home/renzo/Projects/hardware/stm32f103c8t6/libopencm3/lib/libopencm3_stm32f1.a(flash_common_all.o)

.debug_aranges  0x0000000000000000      0x710
 .debug_aranges
                0x0000000000000000       0x38 uart.o
 .debug_aranges
                0x0000000000000038       0x48 rtos/heap_4.o
 .debug_aranges
                0x0000000000000080       0x40 rtos/list.o
 .debug_aranges
                0x00000000000000c0       0x70 rtos/port.o
 .debug_aranges
                0x0000000000000130       0xa8 rtos/queue.o
 .debug_aranges
                0x00000000000001d8      0x160 rtos/tasks.o
 .debug_aranges
                0x0000000000000338       0x30 rtos/opencm3.o
 .debug_aranges
                0x0000000000000368       0x38 /home/renzo/Projects/hardware/stm32f103c8t6/libopencm3/lib/libopencm3_stm32f1.a(gpio.o)
 .debug_aranges
                0x00000000000003a0       0x50 /home/renzo/Projects/hardware/stm32f103c8t6/libopencm3/lib/libopencm3_stm32f1.a(gpio_common_all.o)
 .debug_aranges
                0x00000000000003f0      0x158 /home/renzo/Projects/hardware/stm32f103c8t6/libopencm3/lib/libopencm3_stm32f1.a(rcc.o)
 .debug_aranges
                0x0000000000000548       0x68 /home/renzo/Projects/hardware/stm32f103c8t6/libopencm3/lib/libopencm3_stm32f1.a(rcc_common_all.o)
 .debug_aranges
                0x00000000000005b0       0xb8 /home/renzo/Projects/hardware/stm32f103c8t6/libopencm3/lib/libopencm3_stm32f1.a(usart_common_all.o)
 .debug_aranges
                0x0000000000000668       0x40 /home/renzo/Projects/hardware/stm32f103c8t6/libopencm3/lib/libopencm3_stm32f1.a(usart_common_f124.o)
 .debug_aranges
                0x00000000000006a8       0x30 /home/renzo/Projects/hardware/stm32f103c8t6/libopencm3/lib/libopencm3_stm32f1.a(vector.o)
 .debug_aranges
                0x00000000000006d8       0x38 /home/renzo/Projects/hardware/stm32f103c8t6/libopencm3/lib/libopencm3_stm32f1.a(flash_common_all.o)

.debug_ranges   0x0000000000000000      0x8c0
 .debug_ranges  0x0000000000000000       0x48 uart.o
 .debug_ranges  0x0000000000000048       0x38 rtos/heap_4.o
 .debug_ranges  0x0000000000000080       0x30 rtos/list.o
 .debug_ranges  0x00000000000000b0       0x60 rtos/port.o
 .debug_ranges  0x0000000000000110      0x178 rtos/queue.o
 .debug_ranges  0x0000000000000288      0x290 rtos/tasks.o
 .debug_ranges  0x0000000000000518       0x20 rtos/opencm3.o
 .debug_ranges  0x0000000000000538       0x28 /home/renzo/Projects/hardware/stm32f103c8t6/libopencm3/lib/libopencm3_stm32f1.a(gpio.o)
 .debug_ranges  0x0000000000000560       0x40 /home/renzo/Projects/hardware/stm32f103c8t6/libopencm3/lib/libopencm3_stm32f1.a(gpio_common_all.o)
 .debug_ranges  0x00000000000005a0      0x1a8 /home/renzo/Projects/hardware/stm32f103c8t6/libopencm3/lib/libopencm3_stm32f1.a(rcc.o)
 .debug_ranges  0x0000000000000748       0x58 /home/renzo/Projects/hardware/stm32f103c8t6/libopencm3/lib/libopencm3_stm32f1.a(rcc_common_all.o)
 .debug_ranges  0x00000000000007a0       0xa8 /home/renzo/Projects/hardware/stm32f103c8t6/libopencm3/lib/libopencm3_stm32f1.a(usart_common_all.o)
 .debug_ranges  0x0000000000000848       0x30 /home/renzo/Projects/hardware/stm32f103c8t6/libopencm3/lib/libopencm3_stm32f1.a(usart_common_f124.o)
 .debug_ranges  0x0000000000000878       0x20 /home/renzo/Projects/hardware/stm32f103c8t6/libopencm3/lib/libopencm3_stm32f1.a(vector.o)
 .debug_ranges  0x0000000000000898       0x28 /home/renzo/Projects/hardware/stm32f103c8t6/libopencm3/lib/libopencm3_stm32f1.a(flash_common_all.o)

.debug_line     0x0000000000000000     0x3143
 .debug_line    0x0000000000000000      0x251 uart.o
 .debug_line    0x0000000000000251      0x207 rtos/heap_4.o
 .debug_line    0x0000000000000458      0x19c rtos/list.o
 .debug_line    0x00000000000005f4      0x1be rtos/port.o
 .debug_line    0x00000000000007b2      0x48c rtos/queue.o
 .debug_line    0x0000000000000c3e      0x89a rtos/tasks.o
 .debug_line    0x00000000000014d8      0x12e rtos/opencm3.o
 .debug_line    0x0000000000001606      0x294 /home/renzo/Projects/hardware/stm32f103c8t6/libopencm3/lib/libopencm3_stm32f1.a(gpio.o)
 .debug_line    0x000000000000189a      0x2ca /home/renzo/Projects/hardware/stm32f103c8t6/libopencm3/lib/libopencm3_stm32f1.a(gpio_common_all.o)
 .debug_line    0x0000000000001b64      0x669 /home/renzo/Projects/hardware/stm32f103c8t6/libopencm3/lib/libopencm3_stm32f1.a(rcc.o)
 .debug_line    0x00000000000021cd      0x2f5 /home/renzo/Projects/hardware/stm32f103c8t6/libopencm3/lib/libopencm3_stm32f1.a(rcc_common_all.o)
 .debug_line    0x00000000000024c2      0x3f8 /home/renzo/Projects/hardware/stm32f103c8t6/libopencm3/lib/libopencm3_stm32f1.a(usart_common_all.o)
 .debug_line    0x00000000000028ba      0x2eb /home/renzo/Projects/hardware/stm32f103c8t6/libopencm3/lib/libopencm3_stm32f1.a(usart_common_f124.o)
 .debug_line    0x0000000000002ba5      0x2e2 /home/renzo/Projects/hardware/stm32f103c8t6/libopencm3/lib/libopencm3_stm32f1.a(vector.o)
 .debug_line    0x0000000000002e87      0x2bc /home/renzo/Projects/hardware/stm32f103c8t6/libopencm3/lib/libopencm3_stm32f1.a(flash_common_all.o)

.debug_str      0x0000000000000000    0x100ab
 .debug_str     0x0000000000000000      0x531 uart.o
                                        0x5e0 (size before relaxing)
 .debug_str     0x0000000000000531      0x5a2 rtos/heap_4.o
                                        0x770 (size before relaxing)
 .debug_str     0x0000000000000ad3      0x12a rtos/list.o
                                        0x6cb (size before relaxing)
 .debug_str     0x0000000000000bfd      0x183 rtos/port.o
                                        0x349 (size before relaxing)
 .debug_str     0x0000000000000d80      0x477 rtos/queue.o
                                        0xbdc (size before relaxing)
 .debug_str     0x00000000000011f7      0x85e rtos/tasks.o
                                       0x11cf (size before relaxing)
 .debug_str     0x0000000000001a55       0x40 rtos/opencm3.o
                                        0x253 (size before relaxing)
 .debug_str     0x0000000000001a95     0x7b8f /home/renzo/Projects/hardware/stm32f103c8t6/libopencm3/lib/libopencm3_stm32f1.a(gpio.o)
                                       0x7d3e (size before relaxing)
 .debug_str     0x0000000000009624       0x74 /home/renzo/Projects/hardware/stm32f103c8t6/libopencm3/lib/libopencm3_stm32f1.a(gpio_common_all.o)
                                       0x7d32 (size before relaxing)
 .debug_str     0x0000000000009698     0x30b6 /home/renzo/Projects/hardware/stm32f103c8t6/libopencm3/lib/libopencm3_stm32f1.a(rcc.o)
                                       0x7631 (size before relaxing)
 .debug_str     0x000000000000c74e      0x35b /home/renzo/Projects/hardware/stm32f103c8t6/libopencm3/lib/libopencm3_stm32f1.a(rcc_common_all.o)
                                       0x6f47 (size before relaxing)
 .debug_str     0x000000000000caa9     0x10fb /home/renzo/Projects/hardware/stm32f103c8t6/libopencm3/lib/libopencm3_stm32f1.a(usart_common_all.o)
                                       0x7b06 (size before relaxing)
 .debug_str     0x000000000000dba4       0x1e /home/renzo/Projects/hardware/stm32f103c8t6/libopencm3/lib/libopencm3_stm32f1.a(usart_common_f124.o)
                                       0x7940 (size before relaxing)
 .debug_str     0x000000000000dbc2     0x2485 /home/renzo/Projects/hardware/stm32f103c8t6/libopencm3/lib/libopencm3_stm32f1.a(vector.o)
                                       0x5e10 (size before relaxing)
 .debug_str     0x0000000000010047       0x64 /home/renzo/Projects/hardware/stm32f103c8t6/libopencm3/lib/libopencm3_stm32f1.a(flash_common_all.o)
                                       0x4d0a (size before relaxing)

.comment        0x0000000000000000       0x7f
 .comment       0x0000000000000000       0x7f uart.o
                                         0x80 (size before relaxing)
 .comment       0x000000000000007f       0x80 rtos/heap_4.o
 .comment       0x000000000000007f       0x80 rtos/list.o
 .comment       0x000000000000007f       0x80 rtos/port.o
 .comment       0x000000000000007f       0x80 rtos/queue.o
 .comment       0x000000000000007f       0x80 rtos/tasks.o
 .comment       0x000000000000007f       0x80 rtos/opencm3.o
 .comment       0x000000000000007f       0x80 /home/renzo/Projects/hardware/stm32f103c8t6/libopencm3/lib/libopencm3_stm32f1.a(gpio.o)
 .comment       0x000000000000007f       0x80 /home/renzo/Projects/hardware/stm32f103c8t6/libopencm3/lib/libopencm3_stm32f1.a(gpio_common_all.o)
 .comment       0x000000000000007f       0x80 /home/renzo/Projects/hardware/stm32f103c8t6/libopencm3/lib/libopencm3_stm32f1.a(rcc.o)
 .comment       0x000000000000007f       0x80 /home/renzo/Projects/hardware/stm32f103c8t6/libopencm3/lib/libopencm3_stm32f1.a(rcc_common_all.o)
 .comment       0x000000000000007f       0x80 /home/renzo/Projects/hardware/stm32f103c8t6/libopencm3/lib/libopencm3_stm32f1.a(usart_common_all.o)
 .comment       0x000000000000007f       0x80 /home/renzo/Projects/hardware/stm32f103c8t6/libopencm3/lib/libopencm3_stm32f1.a(usart_common_f124.o)
 .comment       0x000000000000007f       0x80 /home/renzo/Projects/hardware/stm32f103c8t6/libopencm3/lib/libopencm3_stm32f1.a(vector.o)
 .comment       0x000000000000007f       0x80 /home/renzo/Projects/hardware/stm32f103c8t6/libopencm3/lib/libopencm3_stm32f1.a(flash_common_all.o)

.ARM.attributes
                0x0000000000000000       0x31
 .ARM.attributes
                0x0000000000000000       0x33 uart.o
 .ARM.attributes
                0x0000000000000033       0x33 rtos/heap_4.o
 .ARM.attributes
                0x0000000000000066       0x33 rtos/list.o
 .ARM.attributes
                0x0000000000000099       0x33 rtos/port.o
 .ARM.attributes
                0x00000000000000cc       0x33 rtos/queue.o
 .ARM.attributes
                0x00000000000000ff       0x33 rtos/tasks.o
 .ARM.attributes
                0x0000000000000132       0x33 rtos/opencm3.o
 .ARM.attributes
                0x0000000000000165       0x1b /opt/gcc-arm/bin/../lib/gcc/arm-none-eabi/6.3.1/../../../../arm-none-eabi/lib/thumb/v7-m/libc.a(lib_a-memcpy.o)
 .ARM.attributes
                0x0000000000000180       0x33 /home/renzo/Projects/hardware/stm32f103c8t6/libopencm3/lib/libopencm3_stm32f1.a(gpio.o)
 .ARM.attributes
                0x00000000000001b3       0x33 /home/renzo/Projects/hardware/stm32f103c8t6/libopencm3/lib/libopencm3_stm32f1.a(gpio_common_all.o)
 .ARM.attributes
                0x00000000000001e6       0x33 /home/renzo/Projects/hardware/stm32f103c8t6/libopencm3/lib/libopencm3_stm32f1.a(rcc.o)
 .ARM.attributes
                0x0000000000000219       0x33 /home/renzo/Projects/hardware/stm32f103c8t6/libopencm3/lib/libopencm3_stm32f1.a(rcc_common_all.o)
 .ARM.attributes
                0x000000000000024c       0x33 /home/renzo/Projects/hardware/stm32f103c8t6/libopencm3/lib/libopencm3_stm32f1.a(usart_common_all.o)
 .ARM.attributes
                0x000000000000027f       0x33 /home/renzo/Projects/hardware/stm32f103c8t6/libopencm3/lib/libopencm3_stm32f1.a(usart_common_f124.o)
 .ARM.attributes
                0x00000000000002b2       0x33 /home/renzo/Projects/hardware/stm32f103c8t6/libopencm3/lib/libopencm3_stm32f1.a(vector.o)
 .ARM.attributes
                0x00000000000002e5       0x33 /home/renzo/Projects/hardware/stm32f103c8t6/libopencm3/lib/libopencm3_stm32f1.a(flash_common_all.o)

.debug_frame    0x0000000000000000     0x1014
 .debug_frame   0x0000000000000000       0x74 uart.o
 .debug_frame   0x0000000000000074       0x98 rtos/heap_4.o
 .debug_frame   0x000000000000010c       0x6c rtos/list.o
 .debug_frame   0x0000000000000178       0xd0 rtos/port.o
 .debug_frame   0x0000000000000248      0x208 rtos/queue.o
 .debug_frame   0x0000000000000450      0x484 rtos/tasks.o
 .debug_frame   0x00000000000008d4       0x40 rtos/opencm3.o
 .debug_frame   0x0000000000000914       0x64 /home/renzo/Projects/hardware/stm32f103c8t6/libopencm3/lib/libopencm3_stm32f1.a(gpio.o)
 .debug_frame   0x0000000000000978       0x80 /home/renzo/Projects/hardware/stm32f103c8t6/libopencm3/lib/libopencm3_stm32f1.a(gpio_common_all.o)
 .debug_frame   0x00000000000009f8      0x2e0 /home/renzo/Projects/hardware/stm32f103c8t6/libopencm3/lib/libopencm3_stm32f1.a(rcc.o)
 .debug_frame   0x0000000000000cd8       0xd0 /home/renzo/Projects/hardware/stm32f103c8t6/libopencm3/lib/libopencm3_stm32f1.a(rcc_common_all.o)
 .debug_frame   0x0000000000000da8      0x170 /home/renzo/Projects/hardware/stm32f103c8t6/libopencm3/lib/libopencm3_stm32f1.a(usart_common_all.o)
 .debug_frame   0x0000000000000f18       0x60 /home/renzo/Projects/hardware/stm32f103c8t6/libopencm3/lib/libopencm3_stm32f1.a(usart_common_f124.o)
 .debug_frame   0x0000000000000f78       0x4c /home/renzo/Projects/hardware/stm32f103c8t6/libopencm3/lib/libopencm3_stm32f1.a(vector.o)
 .debug_frame   0x0000000000000fc4       0x50 /home/renzo/Projects/hardware/stm32f103c8t6/libopencm3/lib/libopencm3_stm32f1.a(flash_common_all.o)

.debug_macro    0x0000000000000000     0x375f
 .debug_macro   0x0000000000000000       0xb8 /home/renzo/Projects/hardware/stm32f103c8t6/libopencm3/lib/libopencm3_stm32f1.a(gpio.o)
 .debug_macro   0x00000000000000b8      0x8aa /home/renzo/Projects/hardware/stm32f103c8t6/libopencm3/lib/libopencm3_stm32f1.a(gpio.o)
 .debug_macro   0x0000000000000962       0x1c /home/renzo/Projects/hardware/stm32f103c8t6/libopencm3/lib/libopencm3_stm32f1.a(gpio.o)
 .debug_macro   0x000000000000097e       0x22 /home/renzo/Projects/hardware/stm32f103c8t6/libopencm3/lib/libopencm3_stm32f1.a(gpio.o)
 .debug_macro   0x00000000000009a0       0x4f /home/renzo/Projects/hardware/stm32f103c8t6/libopencm3/lib/libopencm3_stm32f1.a(gpio.o)
 .debug_macro   0x00000000000009ef       0x51 /home/renzo/Projects/hardware/stm32f103c8t6/libopencm3/lib/libopencm3_stm32f1.a(gpio.o)
 .debug_macro   0x0000000000000a40       0xef /home/renzo/Projects/hardware/stm32f103c8t6/libopencm3/lib/libopencm3_stm32f1.a(gpio.o)
 .debug_macro   0x0000000000000b2f       0x6a /home/renzo/Projects/hardware/stm32f103c8t6/libopencm3/lib/libopencm3_stm32f1.a(gpio.o)
 .debug_macro   0x0000000000000b99      0x1df /home/renzo/Projects/hardware/stm32f103c8t6/libopencm3/lib/libopencm3_stm32f1.a(gpio.o)
 .debug_macro   0x0000000000000d78       0x22 /home/renzo/Projects/hardware/stm32f103c8t6/libopencm3/lib/libopencm3_stm32f1.a(gpio.o)
 .debug_macro   0x0000000000000d9a       0xe8 /home/renzo/Projects/hardware/stm32f103c8t6/libopencm3/lib/libopencm3_stm32f1.a(gpio.o)
 .debug_macro   0x0000000000000e82       0x76 /home/renzo/Projects/hardware/stm32f103c8t6/libopencm3/lib/libopencm3_stm32f1.a(gpio.o)
 .debug_macro   0x0000000000000ef8      0x1b4 /home/renzo/Projects/hardware/stm32f103c8t6/libopencm3/lib/libopencm3_stm32f1.a(gpio.o)
 .debug_macro   0x00000000000010ac       0x76 /home/renzo/Projects/hardware/stm32f103c8t6/libopencm3/lib/libopencm3_stm32f1.a(gpio.o)
 .debug_macro   0x0000000000001122      0xe04 /home/renzo/Projects/hardware/stm32f103c8t6/libopencm3/lib/libopencm3_stm32f1.a(gpio.o)
 .debug_macro   0x0000000000001f26       0xb8 /home/renzo/Projects/hardware/stm32f103c8t6/libopencm3/lib/libopencm3_stm32f1.a(gpio_common_all.o)
 .debug_macro   0x0000000000001fde       0xe7 /home/renzo/Projects/hardware/stm32f103c8t6/libopencm3/lib/libopencm3_stm32f1.a(rcc.o)
 .debug_macro   0x00000000000020c5       0x16 /home/renzo/Projects/hardware/stm32f103c8t6/libopencm3/lib/libopencm3_stm32f1.a(rcc.o)
 .debug_macro   0x00000000000020db      0x82c /home/renzo/Projects/hardware/stm32f103c8t6/libopencm3/lib/libopencm3_stm32f1.a(rcc.o)
 .debug_macro   0x0000000000002907       0xee /home/renzo/Projects/hardware/stm32f103c8t6/libopencm3/lib/libopencm3_stm32f1.a(rcc.o)
 .debug_macro   0x00000000000029f5       0x82 /home/renzo/Projects/hardware/stm32f103c8t6/libopencm3/lib/libopencm3_stm32f1.a(rcc.o)
 .debug_macro   0x0000000000002a77       0xce /home/renzo/Projects/hardware/stm32f103c8t6/libopencm3/lib/libopencm3_stm32f1.a(rcc_common_all.o)
 .debug_macro   0x0000000000002b45       0xda /home/renzo/Projects/hardware/stm32f103c8t6/libopencm3/lib/libopencm3_stm32f1.a(usart_common_all.o)
 .debug_macro   0x0000000000002c1f       0x94 /home/renzo/Projects/hardware/stm32f103c8t6/libopencm3/lib/libopencm3_stm32f1.a(usart_common_all.o)
 .debug_macro   0x0000000000002cb3      0x29e /home/renzo/Projects/hardware/stm32f103c8t6/libopencm3/lib/libopencm3_stm32f1.a(usart_common_all.o)
 .debug_macro   0x0000000000002f51       0xda /home/renzo/Projects/hardware/stm32f103c8t6/libopencm3/lib/libopencm3_stm32f1.a(usart_common_f124.o)
 .debug_macro   0x000000000000302b       0xcf /home/renzo/Projects/hardware/stm32f103c8t6/libopencm3/lib/libopencm3_stm32f1.a(vector.o)
 .debug_macro   0x00000000000030fa      0x395 /home/renzo/Projects/hardware/stm32f103c8t6/libopencm3/lib/libopencm3_stm32f1.a(vector.o)
 .debug_macro   0x000000000000348f       0x6e /home/renzo/Projects/hardware/stm32f103c8t6/libopencm3/lib/libopencm3_stm32f1.a(vector.o)
 .debug_macro   0x00000000000034fd      0x1a2 /home/renzo/Projects/hardware/stm32f103c8t6/libopencm3/lib/libopencm3_stm32f1.a(vector.o)
 .debug_macro   0x000000000000369f       0xc0 /home/renzo/Projects/hardware/stm32f103c8t6/libopencm3/lib/libopencm3_stm32f1.a(flash_common_all.o)
